{
  "contractName": "ConsensusContract",
  "abi": [
    {
      "anonymous": false,
      "inputs": [
        {
          "indexed": true,
          "internalType": "int32",
          "name": "domain",
          "type": "int32"
        },
        {
          "indexed": false,
          "internalType": "uint256[2]",
          "name": "transactions",
          "type": "uint256[2]"
        }
      ],
      "name": "Conflict",
      "type": "event"
    },
    {
      "inputs": [],
      "name": "block_interval",
      "outputs": [
        {
          "internalType": "uint256",
          "name": "",
          "type": "uint256"
        }
      ],
      "stateMutability": "view",
      "type": "function",
      "constant": true
    },
    {
      "inputs": [],
      "name": "domain_count",
      "outputs": [
        {
          "internalType": "int32",
          "name": "",
          "type": "int32"
        }
      ],
      "stateMutability": "view",
      "type": "function",
      "constant": true
    },
    {
      "inputs": [],
      "name": "index_block",
      "outputs": [
        {
          "internalType": "uint256",
          "name": "",
          "type": "uint256"
        }
      ],
      "stateMutability": "view",
      "type": "function",
      "constant": true
    },
    {
      "inputs": [],
      "name": "list",
      "outputs": [
        {
          "internalType": "uint256",
          "name": "size",
          "type": "uint256"
        }
      ],
      "stateMutability": "view",
      "type": "function",
      "constant": true
    },
    {
      "inputs": [
        {
          "internalType": "uint256",
          "name": "",
          "type": "uint256"
        }
      ],
      "name": "orderers",
      "outputs": [
        {
          "internalType": "address",
          "name": "",
          "type": "address"
        }
      ],
      "stateMutability": "view",
      "type": "function",
      "constant": true
    },
    {
      "inputs": [],
      "name": "orderers_count",
      "outputs": [
        {
          "internalType": "uint256",
          "name": "",
          "type": "uint256"
        }
      ],
      "stateMutability": "view",
      "type": "function",
      "constant": true
    },
    {
      "inputs": [
        {
          "internalType": "uint256",
          "name": "",
          "type": "uint256"
        }
      ],
      "name": "pending_domains",
      "outputs": [
        {
          "internalType": "int32",
          "name": "",
          "type": "int32"
        }
      ],
      "stateMutability": "view",
      "type": "function",
      "constant": true
    },
    {
      "inputs": [
        {
          "internalType": "uint256",
          "name": "",
          "type": "uint256"
        }
      ],
      "name": "pending_interactions",
      "outputs": [
        {
          "internalType": "uint256",
          "name": "instance",
          "type": "uint256"
        },
        {
          "internalType": "address",
          "name": "sender",
          "type": "address"
        },
        {
          "internalType": "address",
          "name": "receiver",
          "type": "address"
        },
        {
          "internalType": "string",
          "name": "task",
          "type": "string"
        },
        {
          "internalType": "uint256",
          "name": "id",
          "type": "uint256"
        },
        {
          "internalType": "uint256",
          "name": "block_number",
          "type": "uint256"
        },
        {
          "internalType": "int32",
          "name": "domain",
          "type": "int32"
        },
        {
          "internalType": "bool",
          "name": "removed",
          "type": "bool"
        }
      ],
      "stateMutability": "view",
      "type": "function",
      "constant": true
    },
    {
      "inputs": [],
      "name": "pending_interactions_count",
      "outputs": [
        {
          "internalType": "uint256",
          "name": "",
          "type": "uint256"
        }
      ],
      "stateMutability": "view",
      "type": "function",
      "constant": true
    },
    {
      "inputs": [],
      "name": "vote_count",
      "outputs": [
        {
          "internalType": "uint256",
          "name": "",
          "type": "uint256"
        }
      ],
      "stateMutability": "view",
      "type": "function",
      "constant": true
    },
    {
      "inputs": [],
      "name": "workflow_contract",
      "outputs": [
        {
          "internalType": "contract workflowInterface",
          "name": "",
          "type": "address"
        }
      ],
      "stateMutability": "view",
      "type": "function",
      "constant": true
    },
    {
      "inputs": [
        {
          "internalType": "uint256",
          "name": "instance",
          "type": "uint256"
        },
        {
          "internalType": "string",
          "name": "task",
          "type": "string"
        }
      ],
      "name": "submit_interaction",
      "outputs": [],
      "stateMutability": "nonpayable",
      "type": "function"
    },
    {
      "inputs": [
        {
          "internalType": "uint256[]",
          "name": "interactionOrder",
          "type": "uint256[]"
        }
      ],
      "name": "order_interactions",
      "outputs": [],
      "stateMutability": "nonpayable",
      "type": "function"
    },
    {
      "inputs": [],
      "name": "release",
      "outputs": [],
      "stateMutability": "nonpayable",
      "type": "function"
    },
    {
      "inputs": [
        {
          "internalType": "address",
          "name": "sender",
          "type": "address"
        }
      ],
      "name": "permitted_interactions",
      "outputs": [
        {
          "internalType": "uint256[]",
          "name": "",
          "type": "uint256[]"
        }
      ],
      "stateMutability": "view",
      "type": "function",
      "constant": true
    },
    {
      "inputs": [
        {
          "internalType": "uint256",
          "name": "id",
          "type": "uint256"
        }
      ],
      "name": "get_interaction",
      "outputs": [
        {
          "components": [
            {
              "internalType": "uint256",
              "name": "instance",
              "type": "uint256"
            },
            {
              "internalType": "address",
              "name": "sender",
              "type": "address"
            },
            {
              "internalType": "address",
              "name": "receiver",
              "type": "address"
            },
            {
              "internalType": "string",
              "name": "task",
              "type": "string"
            },
            {
              "internalType": "uint256",
              "name": "id",
              "type": "uint256"
            },
            {
              "internalType": "uint256",
              "name": "block_number",
              "type": "uint256"
            },
            {
              "internalType": "int32",
              "name": "domain",
              "type": "int32"
            },
            {
              "internalType": "bool",
              "name": "removed",
              "type": "bool"
            }
          ],
          "internalType": "struct ConsensusContract.pending_interaction",
          "name": "",
          "type": "tuple"
        }
      ],
      "stateMutability": "view",
      "type": "function",
      "constant": true
    },
    {
      "inputs": [],
      "name": "list_size",
      "outputs": [
        {
          "internalType": "uint256",
          "name": "",
          "type": "uint256"
        }
      ],
      "stateMutability": "view",
      "type": "function",
      "constant": true
    },
    {
      "inputs": [],
      "name": "canVote",
      "outputs": [
        {
          "internalType": "bool",
          "name": "",
          "type": "bool"
        }
      ],
      "stateMutability": "view",
      "type": "function",
      "constant": true
    },
    {
      "inputs": [],
      "name": "blockNB",
      "outputs": [
        {
          "internalType": "uint256",
          "name": "",
          "type": "uint256"
        }
      ],
      "stateMutability": "view",
      "type": "function",
      "constant": true
    },
    {
      "inputs": [
        {
          "internalType": "address",
          "name": "workflowAddress",
          "type": "address"
        }
      ],
      "name": "setWorkflow",
      "outputs": [],
      "stateMutability": "nonpayable",
      "type": "function"
    },
    {
      "inputs": [],
      "name": "orderers_length",
      "outputs": [
        {
          "internalType": "uint256",
          "name": "",
          "type": "uint256"
        }
      ],
      "stateMutability": "view",
      "type": "function",
      "constant": true
    },
    {
      "inputs": [
        {
          "internalType": "string",
          "name": "a",
          "type": "string"
        },
        {
          "internalType": "string",
          "name": "b",
          "type": "string"
        }
      ],
      "name": "compareStrings",
      "outputs": [
        {
          "internalType": "bool",
          "name": "",
          "type": "bool"
        }
      ],
      "stateMutability": "view",
      "type": "function",
      "constant": true
    }
  ],
  "bytecode": "0x608060405260026003556000600455600160065560006008556000600960006101000a81548163ffffffff021916908360030b63ffffffff1602179055506000600b5534801561004e57600080fd5b50613eba8061005e6000396000f3fe608060405234801561001057600080fd5b50600436106101425760003560e01c806377c9b171116100b8578063c3ad08ad1161007c578063c3ad08ad1461035c578063ca1ceff81461038c578063ce48fce6146103bc578063d981ead6146103da578063e655e89d146103f8578063f43036941461041657610142565b806377c9b171146102ca5780637b947c47146102e857806386d1a69f14610304578063b49ab3be1461030e578063bed34bba1461032c57610142565b8063296973dc1161010a578063296973dc146101d95780632fb05d4b146101f75780634de48111146102275780634de846361461024557806350fa1017146102635780636440aee61461029357610142565b8063047db5ae146101475780630840b7ce146101635780630f560cd71461017f578063159e70641461019d578063220c5669146101bb575b600080fd5b610161600480360381019061015c9190613054565b610434565b005b61017d6004803603810190610178919061310e565b61074e565b005b610187610792565b604051610194919061314a565b60405180910390f35b6101a561079e565b6040516101b29190613180565b60405180910390f35b6101c36107c6565b6040516101d0919061314a565b60405180910390f35b6101e16107cc565b6040516101ee91906131b7565b60405180910390f35b610211600480360381019061020c91906131d2565b6107df565b60405161021e919061320e565b60405180910390f35b61022f61081e565b60405161023c9190613288565b60405180910390f35b61024d610844565b60405161025a919061314a565b60405180910390f35b61027d6004803603810190610278919061310e565b610851565b60405161028a9190613361565b60405180910390f35b6102ad60048036038101906102a891906131d2565b610bbf565b6040516102c198979695949392919061340b565b60405180910390f35b6102d2610cf9565b6040516102df919061314a565b60405180910390f35b61030260048036038101906102fd9190613558565b610d01565b005b61030c6110fa565b005b61031661119c565b604051610323919061314a565b60405180910390f35b610346600480360381019061034191906135a1565b6111a2565b6040516103539190613180565b60405180910390f35b610376600480360381019061037191906131d2565b6111fb565b60405161038391906131b7565b60405180910390f35b6103a660048036038101906103a191906131d2565b611232565b6040516103b39190613740565b60405180910390f35b6103c4611254565b6040516103d1919061314a565b60405180910390f35b6103e2611265565b6040516103ef919061314a565b60405180910390f35b61040061126b565b60405161040d919061314a565b60405180910390f35b61041e611271565b60405161042b919061314a565b60405180910390f35b60006004540361044657436004819055505b6003546004546104569190613791565b43101561070f576000600260009054906101000a900473ffffffffffffffffffffffffffffffffffffffff1673ffffffffffffffffffffffffffffffffffffffff1663cb61b29a84846040518363ffffffff1660e01b81526004016104bc9291906137e7565b600060405180830381865afa1580156104d9573d6000803e3d6000fd5b505050506040513d6000823e3d601f19601f8201168201806040525081019061050291906138ef565b905060056040518061010001604052808581526020013373ffffffffffffffffffffffffffffffffffffffff1681526020018360018151811061054857610547613938565b5b602002602001015173ffffffffffffffffffffffffffffffffffffffff1681526020018481526020016006600081548092919061058490613967565b9190505581526020014381526020017fffffffffffffffffffffffffffffffffffffffffffffffffffffffffffffffff60030b81526020016000151581525090806001815401808255809150506001900390600052602060002090600702016000909190919091506000820151816000015560208201518160010160006101000a81548173ffffffffffffffffffffffffffffffffffffffff021916908373ffffffffffffffffffffffffffffffffffffffff16021790555060408201518160020160006101000a81548173ffffffffffffffffffffffffffffffffffffffff021916908373ffffffffffffffffffffffffffffffffffffffff16021790555060608201518160030190805190602001906106a0929190612c95565b506080820151816004015560a0820151816005015560c08201518160060160006101000a81548163ffffffff021916908360030b63ffffffff16021790555060e08201518160060160046101000a81548160ff0219169083151502179055505050610709611277565b5061074a565b6040517f08c379a0000000000000000000000000000000000000000000000000000000008152600401610741906139fb565b60405180910390fd5b5050565b80600260006101000a81548173ffffffffffffffffffffffffffffffffffffffff021916908373ffffffffffffffffffffffffffffffffffffffff16021790555050565b60008060000154905081565b600080600454141580156107c157506003546004546107bd9190613791565b4310155b905090565b60085481565b600960009054906101000a900460030b81565b600781815481106107ef57600080fd5b906000526020600020016000915054906101000a900473ffffffffffffffffffffffffffffffffffffffff1681565b600260009054906101000a900473ffffffffffffffffffffffffffffffffffffffff1681565b6000600780549050905090565b60606000805b6005805490508110156109bb57600115156005828154811061087c5761087b613938565b5b906000526020600020906007020160060160049054906101000a900460ff16151503156109a8578373ffffffffffffffffffffffffffffffffffffffff16600582815481106108ce576108cd613938565b5b906000526020600020906007020160010160009054906101000a900473ffffffffffffffffffffffffffffffffffffffff1673ffffffffffffffffffffffffffffffffffffffff16148061099257508373ffffffffffffffffffffffffffffffffffffffff166005828154811061094857610947613938565b5b906000526020600020906007020160020160009054906101000a900473ffffffffffffffffffffffffffffffffffffffff1673ffffffffffffffffffffffffffffffffffffffff16145b156109a7576001826109a49190613791565b91505b5b80806109b390613967565b915050610857565b5060008167ffffffffffffffff8111156109d8576109d7612f29565b5b604051908082528060200260200182016040528015610a065781602001602082028036833780820191505090505b5090506000805b600580549050811015610bb3576001151560058281548110610a3257610a31613938565b5b906000526020600020906007020160060160049054906101000a900460ff1615150315610ba0578573ffffffffffffffffffffffffffffffffffffffff1660058281548110610a8457610a83613938565b5b906000526020600020906007020160010160009054906101000a900473ffffffffffffffffffffffffffffffffffffffff1673ffffffffffffffffffffffffffffffffffffffff161480610b4857508573ffffffffffffffffffffffffffffffffffffffff1660058281548110610afe57610afd613938565b5b906000526020600020906007020160020160009054906101000a900473ffffffffffffffffffffffffffffffffffffffff1673ffffffffffffffffffffffffffffffffffffffff16145b15610b9f5760058181548110610b6157610b60613938565b5b906000526020600020906007020160040154838380610b7f90613967565b945081518110610b9257610b91613938565b5b6020026020010181815250505b5b8080610bab90613967565b915050610a0d565b50819350505050919050565b60058181548110610bcf57600080fd5b90600052602060002090600702016000915090508060000154908060010160009054906101000a900473ffffffffffffffffffffffffffffffffffffffff16908060020160009054906101000a900473ffffffffffffffffffffffffffffffffffffffff1690806003018054610c4490613a4a565b80601f0160208091040260200160405190810160405280929190818152602001828054610c7090613a4a565b8015610cbd5780601f10610c9257610100808354040283529160200191610cbd565b820191906000526020600020905b815481529060010190602001808311610ca057829003601f168201915b5050505050908060040154908060050154908060060160009054906101000a900460030b908060060160049054906101000a900460ff16905088565b600043905090565b600060045414158015610d235750600354600454610d1f9190613791565b4310155b156110bc57610d3133611871565b610d3a57600080fd5b6001600b6000828254610d4d9190613791565b925050819055506000600960009054906101000a900460030b60030b03610d7757610d7661191f565b5b6000805b82518110156110a157610da833848381518110610d9b57610d9a613938565b5b6020026020010151611fcd565b610de7576040517f08c379a0000000000000000000000000000000000000000000000000000000008152600401610dde90613ac7565b60405180910390fd5b600080610e0d858481518110610e0057610dff613938565b5b6020026020010151612069565b91509150600115158260e00151151503610e5c576040517f08c379a0000000000000000000000000000000000000000000000000000000008152600401610e5390613b33565b60405180910390fd5b610e816000868581518110610e7457610e73613938565b5b60200260200101516122d6565b1561104757610eaa84868581518110610e9d57610e9c613938565b5b6020026020010151612390565b15610ed157848381518110610ec257610ec1613938565b5b60200260200101519350611042565b60005b600580549050811015610f72578260c0015160030b60058581548110610efd57610efc613938565b5b906000526020600020906007020160060160009054906101000a900460030b60030b03610f5f57610f54600060058681548110610f3d57610f3c613938565b5b9060005260206000209060070201600401546123f0565b50610f5e816124fa565b5b8080610f6a90613967565b915050610ed4565b5060006040518060400160405280868152602001878681518110610f9957610f98613938565b5b60200260200101518152509050600a8360c0015190806001815401808255809150506001900390600052602060002090600891828204019190066004029091909190916101000a81548163ffffffff021916908360030b63ffffffff1602179055508260c0015160030b7fbad0d37b83f882ec94894ad9b6079de94febdd16145669ffe6e655917a57f9b2826040516110329190613bd7565b60405180910390a25050506110a1565b61108c565b61106d6000858786815181106110605761105f613938565b5b6020026020010151612806565b5084838151811061108157611080613938565b5b602002602001015193505b5050808061109990613967565b915050610d7b565b50600854600b54036110b6576110b561281e565b5b506110f7565b6040517f08c379a00000000000000000000000000000000000000000000000000000000081526004016110ee90613c3e565b60405180910390fd5b50565b60006004541415801561111c57506003546004546111189190613791565b4310155b801561112a57506000600854145b1561115f576000600960009054906101000a900460030b60030b036111525761115161191f565b5b61115a61281e565b61119a565b6040517f08c379a000000000000000000000000000000000000000000000000000000000815260040161119190613caa565b60405180910390fd5b565b60035481565b6000816040516020016111b59190613d06565b60405160208183030381529060405280519060200120836040516020016111dc9190613d06565b6040516020818303038152906040528051906020012014905092915050565b600a818154811061120b57600080fd5b9060005260206000209060089182820401919006600402915054906101000a900460030b81565b61123a612d1b565b60008061124684612069565b915091508192505050919050565b600061126060006129ae565b905090565b60065481565b600b5481565b60045481565b60005b60058054905081101561186e5760005b60058054905081101561185a5760011515600583815481106112af576112ae613938565b5b906000526020600020906007020160060160049054906101000a900460ff1615151480611312575060011515600582815481106112ef576112ee613938565b5b906000526020600020906007020160060160049054906101000a900460ff161515145b6118475780820315611847576005818154811061133257611331613938565b5b906000526020600020906007020160010160009054906101000a900473ffffffffffffffffffffffffffffffffffffffff1673ffffffffffffffffffffffffffffffffffffffff166005838154811061138e5761138d613938565b5b906000526020600020906007020160010160009054906101000a900473ffffffffffffffffffffffffffffffffffffffff1673ffffffffffffffffffffffffffffffffffffffff1614806114975750600581815481106113f1576113f0613938565b5b906000526020600020906007020160020160009054906101000a900473ffffffffffffffffffffffffffffffffffffffff1673ffffffffffffffffffffffffffffffffffffffff166005838154811061144d5761144c613938565b5b906000526020600020906007020160010160009054906101000a900473ffffffffffffffffffffffffffffffffffffffff1673ffffffffffffffffffffffffffffffffffffffff16145b156115b2576114ea600583815481106114b3576114b2613938565b5b906000526020600020906007020160010160009054906101000a900473ffffffffffffffffffffffffffffffffffffffff16611871565b6115b15760076005838154811061150457611503613938565b5b906000526020600020906007020160010160009054906101000a900473ffffffffffffffffffffffffffffffffffffffff169080600181540180825580915050600190039060005260206000200160009091909190916101000a81548173ffffffffffffffffffffffffffffffffffffffff021916908373ffffffffffffffffffffffffffffffffffffffff1602179055506001600860008282546115a99190613791565b925050819055505b5b600581815481106115c6576115c5613938565b5b906000526020600020906007020160010160009054906101000a900473ffffffffffffffffffffffffffffffffffffffff1673ffffffffffffffffffffffffffffffffffffffff166005838154811061162257611621613938565b5b906000526020600020906007020160020160009054906101000a900473ffffffffffffffffffffffffffffffffffffffff1673ffffffffffffffffffffffffffffffffffffffff16148061172b57506005818154811061168557611684613938565b5b906000526020600020906007020160020160009054906101000a900473ffffffffffffffffffffffffffffffffffffffff1673ffffffffffffffffffffffffffffffffffffffff16600583815481106116e1576116e0613938565b5b906000526020600020906007020160020160009054906101000a900473ffffffffffffffffffffffffffffffffffffffff1673ffffffffffffffffffffffffffffffffffffffff16145b156118465761177e6005838154811061174757611746613938565b5b906000526020600020906007020160020160009054906101000a900473ffffffffffffffffffffffffffffffffffffffff16611871565b6118455760076005838154811061179857611797613938565b5b906000526020600020906007020160020160009054906101000a900473ffffffffffffffffffffffffffffffffffffffff169080600181540180825580915050600190039060005260206000200160009091909190916101000a81548173ffffffffffffffffffffffffffffffffffffffff021916908373ffffffffffffffffffffffffffffffffffffffff16021790555060016008600082825461183d9190613791565b925050819055505b5b5b808061185290613967565b91505061128a565b50808061186690613967565b91505061127a565b50565b600080600090505b600780549050811015611914576007818154811061189a57611899613938565b5b9060005260206000200160009054906101000a900473ffffffffffffffffffffffffffffffffffffffff1673ffffffffffffffffffffffffffffffffffffffff168373ffffffffffffffffffffffffffffffffffffffff160361190157600191505061191a565b808061190c90613967565b915050611879565b50600090505b919050565b60005b600580549050811015611fca57600115156005828154811061194757611946613938565b5b906000526020600020906007020160060160049054906101000a900460ff1615150315611fb75760006005828154811061198457611983613938565b5b906000526020600020906007020160060160009054906101000a900460030b90507fffffffffffffffffffffffffffffffffffffffffffffffffffffffffffffffff8160030b03611a59576009600081819054906101000a900460030b809291906119ee90613d1d565b91906101000a81548163ffffffff021916908360030b63ffffffff16021790555090508060058381548110611a2657611a25613938565b5b906000526020600020906007020160060160006101000a81548163ffffffff021916908360030b63ffffffff1602179055505b6000805b600580549050811015611f7557808414611f6157600060058581548110611a8757611a86613938565b5b906000526020600020906007020160405180610100016040529081600082015481526020016001820160009054906101000a900473ffffffffffffffffffffffffffffffffffffffff1673ffffffffffffffffffffffffffffffffffffffff1673ffffffffffffffffffffffffffffffffffffffff1681526020016002820160009054906101000a900473ffffffffffffffffffffffffffffffffffffffff1673ffffffffffffffffffffffffffffffffffffffff1673ffffffffffffffffffffffffffffffffffffffff168152602001600382018054611b6790613a4a565b80601f0160208091040260200160405190810160405280929190818152602001828054611b9390613a4a565b8015611be05780601f10611bb557610100808354040283529160200191611be0565b820191906000526020600020905b815481529060010190602001808311611bc357829003601f168201915b5050505050815260200160048201548152602001600582015481526020016006820160009054906101000a900460030b60030b60030b81526020016006820160049054906101000a900460ff1615151515815250509050600060058381548110611c4d57611c4c613938565b5b906000526020600020906007020160405180610100016040529081600082015481526020016001820160009054906101000a900473ffffffffffffffffffffffffffffffffffffffff1673ffffffffffffffffffffffffffffffffffffffff1673ffffffffffffffffffffffffffffffffffffffff1681526020016002820160009054906101000a900473ffffffffffffffffffffffffffffffffffffffff1673ffffffffffffffffffffffffffffffffffffffff1673ffffffffffffffffffffffffffffffffffffffff168152602001600382018054611d2d90613a4a565b80601f0160208091040260200160405190810160405280929190818152602001828054611d5990613a4a565b8015611da65780601f10611d7b57610100808354040283529160200191611da6565b820191906000526020600020905b815481529060010190602001808311611d8957829003601f168201915b5050505050815260200160048201548152602001600582015481526020016006820160009054906101000a900460030b60030b60030b81526020016006820160049054906101000a900460ff1615151515815250509050600115158160e00151151503611e14575050611f62565b6000826020015190506000836040015190506000836020015190506000846040015190508173ffffffffffffffffffffffffffffffffffffffff168473ffffffffffffffffffffffffffffffffffffffff161480611e9d57508073ffffffffffffffffffffffffffffffffffffffff168473ffffffffffffffffffffffffffffffffffffffff16145b80611ed357508173ffffffffffffffffffffffffffffffffffffffff168373ffffffffffffffffffffffffffffffffffffffff16145b80611f0957508073ffffffffffffffffffffffffffffffffffffffff168373ffffffffffffffffffffffffffffffffffffffff16145b15611f5a578860058881548110611f2357611f22613938565b5b906000526020600020906007020160060160006101000a81548163ffffffff021916908360030b63ffffffff160217905550600197505b5050505050505b5b8080611f6d90613967565b915050611a5d565b506000151581151503611fb457611fb2600060058581548110611f9b57611f9a613938565b5b9060005260206000209060070201600401546129bc565b505b50505b8080611fc290613967565b915050611922565b50565b6000806000611fdb84612069565b915091508473ffffffffffffffffffffffffffffffffffffffff16826020015173ffffffffffffffffffffffffffffffffffffffff16148061204c57508473ffffffffffffffffffffffffffffffffffffffff16826040015173ffffffffffffffffffffffffffffffffffffffff16145b1561205c57600192505050612063565b6000925050505b92915050565b612071612d1b565b600080600090505b60058054905081101561229557836005828154811061209b5761209a613938565b5b9060005260206000209060070201600401540361228257600581815481106120c6576120c5613938565b5b9060005260206000209060070201818160405180610100016040529081600082015481526020016001820160009054906101000a900473ffffffffffffffffffffffffffffffffffffffff1673ffffffffffffffffffffffffffffffffffffffff1673ffffffffffffffffffffffffffffffffffffffff1681526020016002820160009054906101000a900473ffffffffffffffffffffffffffffffffffffffff1673ffffffffffffffffffffffffffffffffffffffff1673ffffffffffffffffffffffffffffffffffffffff1681526020016003820180546121a890613a4a565b80601f01602080910402602001604051908101604052809291908181526020018280546121d490613a4a565b80156122215780601f106121f657610100808354040283529160200191612221565b820191906000526020600020905b81548152906001019060200180831161220457829003601f168201915b5050505050815260200160048201548152602001600582015481526020016006820160009054906101000a900460030b60030b60030b81526020016006820160049054906101000a900460ff161515151581525050915092509250506122d1565b808061228d90613967565b915050612079565b506040517f08c379a00000000000000000000000000000000000000000000000000000000081526004016122c890613d95565b60405180910390fd5b915091565b6000808360010160008481526020019081526020016000206000801515151581526020019081526020016000205414801561233c575060008360010160008481526020019081526020016000206000600115151515815260200190815260200160002054145b15612385578183600101600080815260200190815260200160002060006001151515158152602001908152602001600020540361237c576001905061238a565b6000905061238a565b600190505b92915050565b60008060006123a260008660016129d2565b915091506000151582151514806123b95750600081145b156123c9576000925050506123ea565b8381036123db576001925050506123ea565b6123e58185612390565b925050505b92915050565b600080821480612407575061240583836122d6565b155b1561241557600090506124f4565b612477838460010160008581526020019081526020016000206000801515151581526020019081526020016000205485600101600086815260200190815260200160002060006001151515158152602001908152602001600020546001612a29565b82600101600083815260200190815260200160002060008015151515815260200190815260200160002060009055826001016000838152602001908152602001600020600060011515151581526020019081526020016000206000905560018360000160008282546124e99190613db5565b925050819055508190505b92915050565b6005805490508110612541576040517f08c379a000000000000000000000000000000000000000000000000000000000815260040161253890613e35565b60405180910390fd5b60008190505b60016005805490506125599190613db5565b81101561273657600560018261256f9190613791565b815481106125805761257f613938565b5b9060005260206000209060070201600582815481106125a2576125a1613938565b5b9060005260206000209060070201600082015481600001556001820160009054906101000a900473ffffffffffffffffffffffffffffffffffffffff168160010160006101000a81548173ffffffffffffffffffffffffffffffffffffffff021916908373ffffffffffffffffffffffffffffffffffffffff1602179055506002820160009054906101000a900473ffffffffffffffffffffffffffffffffffffffff168160020160006101000a81548173ffffffffffffffffffffffffffffffffffffffff021916908373ffffffffffffffffffffffffffffffffffffffff160217905550600382018160030190805461269c90613a4a565b6126a7929190612d91565b5060048201548160040155600582015481600501556006820160009054906101000a900460030b8160060160006101000a81548163ffffffff021916908360030b63ffffffff1602179055506006820160049054906101000a900460ff168160060160046101000a81548160ff021916908315150217905550905050808061272e90613967565b915050612547565b50600580548061274957612748613e55565b5b60019003818190600052602060002090600702016000808201600090556001820160006101000a81549073ffffffffffffffffffffffffffffffffffffffff02191690556002820160006101000a81549073ffffffffffffffffffffffffffffffffffffffff02191690556003820160006127c49190612e1e565b600482016000905560058201600090556006820160006101000a81549063ffffffff02191690556006820160046101000a81549060ff02191690555050905550565b60006128158484846001612a8e565b90509392505050565b600061282a60006129ae565b905060008061283a600083612b2c565b809350819250505060005b8381101561294f5760008061285985612069565b9150915060008061286b600088612b2c565b91509150600015158460e0015115150361293857612903600a8054806020026020016040519081016040528092919081815260200182805480156128f457602002820191906000526020600020906000905b82829054906101000a900460030b60030b815260200190600401906020826003010492830192600103820291508084116128bd5790505b50505050508560c00151612b46565b6129335761291984606001518560000151612ba7565b6129246000886123f0565b5061292e836124fa565b612934565b5b8096505b50505050808061294790613967565b915050612845565b506000600b8190555060006008819055506000600960006101000a81548163ffffffff021916908360030b63ffffffff160217905550600760006129939190612e5e565b600a60006129a19190612e7f565b6000600481905550505050565b600081600001549050919050565b60006129ca83836001612c7d565b905092915050565b6000806129df85856122d6565b6129ef5760008091509150612a21565b600185600101600086815260200190815260200160002060008515151515815260200190815260200160002054915091505b935093915050565b828460010160008481526020019081526020016000206000831515151515815260200190815260200160002081905550818460010160008581526020019081526020016000206000831515151581526020019081526020016000208190555050505050565b6000612a9a85846122d6565b158015612aad5750612aac85856122d6565b5b15612b1f576000856001016000868152602001908152602001600020600084151515158152602001908152602001600020549050612aed86868686612a29565b612af986858386612a29565b6001866000016000828254612b0e9190613791565b925050819055506001915050612b24565b600090505b949350505050565b600080612b3b848460016129d2565b915091509250929050565b600080600090505b8351811015612b9b57838181518110612b6a57612b69613938565b5b602002602001015160030b8360030b03612b88576001915050612ba1565b8080612b9390613967565b915050612b4e565b50600090505b92915050565b612be6826040518060400160405280600a81526020017f6f72646572476f6f6473000000000000000000000000000000000000000000008152506111a2565b15612c7957600260009054906101000a900473ffffffffffffffffffffffffffffffffffffffff1673ffffffffffffffffffffffffffffffffffffffff1663bfe3ad4d826040518263ffffffff1660e01b8152600401612c46919061314a565b600060405180830381600087803b158015612c6057600080fd5b505af1158015612c74573d6000803e3d6000fd5b505050505b5050565b6000612c8c8460008585612a8e565b90509392505050565b828054612ca190613a4a565b90600052602060002090601f016020900481019282612cc35760008555612d0a565b82601f10612cdc57805160ff1916838001178555612d0a565b82800160010185558215612d0a579182015b82811115612d09578251825591602001919060010190612cee565b5b509050612d179190612ea7565b5090565b60405180610100016040528060008152602001600073ffffffffffffffffffffffffffffffffffffffff168152602001600073ffffffffffffffffffffffffffffffffffffffff168152602001606081526020016000815260200160008152602001600060030b81526020016000151581525090565b828054612d9d90613a4a565b90600052602060002090601f016020900481019282612dbf5760008555612e0d565b82601f10612dd05780548555612e0d565b82800160010185558215612e0d57600052602060002091601f016020900482015b82811115612e0c578254825591600101919060010190612df1565b5b509050612e1a9190612ea7565b5090565b508054612e2a90613a4a565b6000825580601f10612e3c5750612e5b565b601f016020900490600052602060002090810190612e5a9190612ea7565b5b50565b5080546000825590600052602060002090810190612e7c9190612ea7565b50565b508054600082556007016008900490600052602060002090810190612ea49190612ea7565b50565b5b80821115612ec0576000816000905550600101612ea8565b5090565b6000604051905090565b600080fd5b600080fd5b6000819050919050565b612eeb81612ed8565b8114612ef657600080fd5b50565b600081359050612f0881612ee2565b92915050565b600080fd5b600080fd5b6000601f19601f8301169050919050565b7f4e487b7100000000000000000000000000000000000000000000000000000000600052604160045260246000fd5b612f6182612f18565b810181811067ffffffffffffffff82111715612f8057612f7f612f29565b5b80604052505050565b6000612f93612ec4565b9050612f9f8282612f58565b919050565b600067ffffffffffffffff821115612fbf57612fbe612f29565b5b612fc882612f18565b9050602081019050919050565b82818337600083830152505050565b6000612ff7612ff284612fa4565b612f89565b90508281526020810184848401111561301357613012612f13565b5b61301e848285612fd5565b509392505050565b600082601f83011261303b5761303a612f0e565b5b813561304b848260208601612fe4565b91505092915050565b6000806040838503121561306b5761306a612ece565b5b600061307985828601612ef9565b925050602083013567ffffffffffffffff81111561309a57613099612ed3565b5b6130a685828601613026565b9150509250929050565b600073ffffffffffffffffffffffffffffffffffffffff82169050919050565b60006130db826130b0565b9050919050565b6130eb816130d0565b81146130f657600080fd5b50565b600081359050613108816130e2565b92915050565b60006020828403121561312457613123612ece565b5b6000613132848285016130f9565b91505092915050565b61314481612ed8565b82525050565b600060208201905061315f600083018461313b565b92915050565b60008115159050919050565b61317a81613165565b82525050565b60006020820190506131956000830184613171565b92915050565b60008160030b9050919050565b6131b18161319b565b82525050565b60006020820190506131cc60008301846131a8565b92915050565b6000602082840312156131e8576131e7612ece565b5b60006131f684828501612ef9565b91505092915050565b613208816130d0565b82525050565b600060208201905061322360008301846131ff565b92915050565b6000819050919050565b600061324e613249613244846130b0565b613229565b6130b0565b9050919050565b600061326082613233565b9050919050565b600061327282613255565b9050919050565b61328281613267565b82525050565b600060208201905061329d6000830184613279565b92915050565b600081519050919050565b600082825260208201905092915050565b6000819050602082019050919050565b6132d881612ed8565b82525050565b60006132ea83836132cf565b60208301905092915050565b6000602082019050919050565b600061330e826132a3565b61331881856132ae565b9350613323836132bf565b8060005b8381101561335457815161333b88826132de565b9750613346836132f6565b925050600181019050613327565b5085935050505092915050565b6000602082019050818103600083015261337b8184613303565b905092915050565b600081519050919050565b600082825260208201905092915050565b60005b838110156133bd5780820151818401526020810190506133a2565b838111156133cc576000848401525b50505050565b60006133dd82613383565b6133e7818561338e565b93506133f781856020860161339f565b61340081612f18565b840191505092915050565b600061010082019050613421600083018b61313b565b61342e602083018a6131ff565b61343b60408301896131ff565b818103606083015261344d81886133d2565b905061345c608083018761313b565b61346960a083018661313b565b61347660c08301856131a8565b61348360e0830184613171565b9998505050505050505050565b600067ffffffffffffffff8211156134ab576134aa612f29565b5b602082029050602081019050919050565b600080fd5b60006134d46134cf84613490565b612f89565b905080838252602082019050602084028301858111156134f7576134f66134bc565b5b835b81811015613520578061350c8882612ef9565b8452602084019350506020810190506134f9565b5050509392505050565b600082601f83011261353f5761353e612f0e565b5b813561354f8482602086016134c1565b91505092915050565b60006020828403121561356e5761356d612ece565b5b600082013567ffffffffffffffff81111561358c5761358b612ed3565b5b6135988482850161352a565b91505092915050565b600080604083850312156135b8576135b7612ece565b5b600083013567ffffffffffffffff8111156135d6576135d5612ed3565b5b6135e285828601613026565b925050602083013567ffffffffffffffff81111561360357613602612ed3565b5b61360f85828601613026565b9150509250929050565b613622816130d0565b82525050565b600082825260208201905092915050565b600061364482613383565b61364e8185613628565b935061365e81856020860161339f565b61366781612f18565b840191505092915050565b61367b8161319b565b82525050565b61368a81613165565b82525050565b6000610100830160008301516136a960008601826132cf565b5060208301516136bc6020860182613619565b5060408301516136cf6040860182613619565b50606083015184820360608601526136e78282613639565b91505060808301516136fc60808601826132cf565b5060a083015161370f60a08601826132cf565b5060c083015161372260c0860182613672565b5060e083015161373560e0860182613681565b508091505092915050565b6000602082019050818103600083015261375a8184613690565b905092915050565b7f4e487b7100000000000000000000000000000000000000000000000000000000600052601160045260246000fd5b600061379c82612ed8565b91506137a783612ed8565b9250827fffffffffffffffffffffffffffffffffffffffffffffffffffffffffffffffff038211156137dc576137db613762565b5b828201905092915050565b60006040820190506137fc600083018561313b565b818103602083015261380e81846133d2565b90509392505050565b600067ffffffffffffffff82111561383257613831612f29565b5b602082029050602081019050919050565b600081519050613852816130e2565b92915050565b600061386b61386684613817565b612f89565b9050808382526020820190506020840283018581111561388e5761388d6134bc565b5b835b818110156138b757806138a38882613843565b845260208401935050602081019050613890565b5050509392505050565b600082601f8301126138d6576138d5612f0e565b5b81516138e6848260208601613858565b91505092915050565b60006020828403121561390557613904612ece565b5b600082015167ffffffffffffffff81111561392357613922612ed3565b5b61392f848285016138c1565b91505092915050565b7f4e487b7100000000000000000000000000000000000000000000000000000000600052603260045260246000fd5b600061397282612ed8565b91507fffffffffffffffffffffffffffffffffffffffffffffffffffffffffffffffff82036139a4576139a3613762565b5b600182019050919050565b7f5472616e73616374696f6e73206c697374206973206c6f636b65642e00000000600082015250565b60006139e5601c8361338e565b91506139f0826139af565b602082019050919050565b60006020820190508181036000830152613a14816139d8565b9050919050565b7f4e487b7100000000000000000000000000000000000000000000000000000000600052602260045260246000fd5b60006002820490506001821680613a6257607f821691505b602082108103613a7557613a74613a1b565b5b50919050565b7f4e6f7420416c6c6f77656420546f204f726465722e0000000000000000000000600082015250565b6000613ab160158361338e565b9150613abc82613a7b565b602082019050919050565b60006020820190508181036000830152613ae081613aa4565b9050919050565b7f496e76616c696420496e746572616374696f6e2e000000000000000000000000600082015250565b6000613b1d60148361338e565b9150613b2882613ae7565b602082019050919050565b60006020820190508181036000830152613b4c81613b10565b9050919050565b600060029050919050565b600081905092915050565b6000819050919050565b6000602082019050919050565b613b8981613b53565b613b938184613b5e565b9250613b9e82613b69565b8060005b83811015613bcf578151613bb687826132de565b9650613bc183613b73565b925050600181019050613ba2565b505050505050565b6000604082019050613bec6000830184613b80565b92915050565b7f43616e277420766f7465206e6f772e0000000000000000000000000000000000600082015250565b6000613c28600f8361338e565b9150613c3382613bf2565b602082019050919050565b60006020820190508181036000830152613c5781613c1b565b9050919050565b7f43616e6e6f742052656c65617365000000000000000000000000000000000000600082015250565b6000613c94600e8361338e565b9150613c9f82613c5e565b602082019050919050565b60006020820190508181036000830152613cc381613c87565b9050919050565b600081905092915050565b6000613ce082613383565b613cea8185613cca565b9350613cfa81856020860161339f565b80840191505092915050565b6000613d128284613cd5565b915081905092915050565b6000613d288261319b565b9150637fffffff8203613d3e57613d3d613762565b5b600182019050919050565b7f496e746572616374696f6e206e6f7420666f756e642e00000000000000000000600082015250565b6000613d7f60168361338e565b9150613d8a82613d49565b602082019050919050565b60006020820190508181036000830152613dae81613d72565b9050919050565b6000613dc082612ed8565b9150613dcb83612ed8565b925082821015613dde57613ddd613762565b5b828203905092915050565b7f696e646578206f7574206f6620626f756e640000000000000000000000000000600082015250565b6000613e1f60128361338e565b9150613e2a82613de9565b602082019050919050565b60006020820190508181036000830152613e4e81613e12565b9050919050565b7f4e487b7100000000000000000000000000000000000000000000000000000000600052603160045260246000fdfea2646970667358221220fbd474a078039de16f89ff87b7d632a7beaa72d0eecf36b365582029f9c4982264736f6c634300080d0033",
  "immutableReferences": {},
  "source": "pragma solidity ^0.8.0;\n\n\nimport \"./StructuredLinkedList.sol\";\nimport \"./workflowInterface.sol\";\n\ncontract ConsensusContract{\n\n    using StructuredLinkedList for StructuredLinkedList.List;\n    StructuredLinkedList.List public list;\n\n    workflowInterface public workflow_contract;\n\n    uint public block_interval = 2;\n    uint public index_block = 0;\n\n    struct pending_interaction{\n        uint instance;\n        address sender;\n        address receiver;\n        string task;\n        uint id;\n        uint block_number;\n        int32 domain; \n        bool removed;\n    }\n\n    // mapping(uint=>pending_interaction) public pending_interactions;\n    pending_interaction[] public pending_interactions;\n    uint public pending_interactions_count = 1;\n\n    address[] public orderers; \n\n    uint public orderers_count = 0;\n\n    int32 public domain_count = 0;\n\n    int32[] public pending_domains;\n\n    uint public vote_count = 0;\n\n    function submit_interaction(uint instance, string memory task) external{\n        if (index_block == 0){\n            index_block = block.number;\n        }\n        \n        if (block.number < (index_block + block_interval)){\n            address[] memory participants = workflow_contract.getParticipantsByTask(instance, task);\n            pending_interactions.push(\n            pending_interaction(instance, msg.sender, participants[1], task, pending_interactions_count++, block.number , -1, false));\n            get_orderers();\n        }\n\n        else{\n            revert(\"Transactions list is locked.\");\n        }\n    }\n    \n    function generate_domains() internal{\n        for (uint i = 0; i<pending_interactions.length; i++){\n\n            if (pending_interactions[i].removed == true){continue;}\n            int32 new_domain = pending_interactions[i].domain;\n            if (new_domain==-1){\n                new_domain = domain_count++;\n                pending_interactions[i].domain = new_domain;\n            }\n            bool matched = false;\n            for (uint j = 0; j<pending_interactions.length; j++){\n                if (i!=j){\n                    \n                    pending_interaction memory target_interaction = pending_interactions[i];\n                    pending_interaction memory next_interaction = pending_interactions[j];\n\n                    if (next_interaction.removed == true){continue;}\n\n                    address target_interaction_sender = target_interaction.sender;\n                    address target_interaction_receiver = target_interaction.receiver;\n\n                    address next_interaction_sender = next_interaction.sender;\n                    address next_interaction_receiver = next_interaction.receiver;\n\n\n                    if (target_interaction_sender == next_interaction_sender || target_interaction_sender == next_interaction_receiver\n                        || target_interaction_receiver == next_interaction_sender || target_interaction_receiver == next_interaction_receiver){\n                        pending_interactions[j].domain = new_domain;\n                        matched = true;\n                    }\n                }\n            }\n            if (matched==false){StructuredLinkedList.pushFront(list, pending_interactions[i].id);} //add isolated interactions directly to the list\n        }   \n\n    }\n    \n    function get_orderers() internal{\n         for (uint i = 0; i < pending_interactions.length;i++){\n            for (uint j = 0; j< pending_interactions.length; j++){\n                \n                if (pending_interactions[i].removed == true || pending_interactions[j].removed == true){continue;}\n                if (i==j){continue;}\n\n                if (pending_interactions[i].sender == pending_interactions[j].sender || pending_interactions[i].sender == pending_interactions[j].receiver){\n                    if(!is_oderer(pending_interactions[i].sender)){\n                        orderers.push(pending_interactions[i].sender);\n                        orderers_count+=1;\n                    }\n                }\n                if (pending_interactions[i].receiver == pending_interactions[j].sender || pending_interactions[i].receiver == pending_interactions[j].receiver){\n                    if(!is_oderer(pending_interactions[i].receiver)){\n                        orderers.push(pending_interactions[i].receiver);\n                        orderers_count+=1;\n                    }\n                }\n            }\n        }\n    }\n\n    function order_interactions(uint[] memory interactionOrder) external{\n   \n        if(index_block !=0 && block.number >= index_block + block_interval){\n            require(is_oderer(msg.sender));\n            vote_count +=1;\n            if (domain_count==0){generate_domains();}\n\n            uint anchor_interaction = 0; //always first element by default\n            for (uint i=0;i<interactionOrder.length;i++){\n                if (!allowed_to_order(msg.sender, interactionOrder[i])){revert(\"Not Allowed To Order.\");}\n                (pending_interaction memory interaction, uint index) = fetch_interaction_by_id(interactionOrder[i]);\n                if(interaction.removed == true){revert(\"Invalid Interaction.\");}\n                if(StructuredLinkedList.nodeExists(list, interactionOrder[i])){\n                        if(is_after(anchor_interaction, interactionOrder[i])){\n                            anchor_interaction = interactionOrder[i];\n                        }\n                        else{\n                            // revert(\"Conflict\");\n                            // remove the conflicting interactions and flag the domain\n                            for (uint j=0;j<pending_interactions.length;j++){\n                                if(pending_interactions[i].domain == interaction.domain){\n                                    StructuredLinkedList.remove(list,pending_interactions[i].id);\n                                    // pending_interactions[i].removed = true;\n                                    removeInteraction(j);\n                                }\n                            }\n                            uint[2] memory conflicting_interactions = [\n                                anchor_interaction,interactionOrder[i]\n                            ];\n                            pending_domains.push(interaction.domain);\n                            emit Conflict(interaction.domain, conflicting_interactions);\n                            break;\n                        }\n                    }\n                else{\n                        StructuredLinkedList.insertAfter(list, anchor_interaction, interactionOrder[i]);\n                        anchor_interaction = interactionOrder[i];\n                    }\n            }\n                if(vote_count==orderers_count){\n                    execute_interactions();\n                }\n        }\n        else{\n            revert(\"Can't vote now.\");\n        }\n    }\n\n    function execute_interactions() internal{\n        uint size = StructuredLinkedList.sizeOf(list);\n        uint anchor_interaction = 0;\n        bool found = false;\n        (found, anchor_interaction) = StructuredLinkedList.getNextNode(list, anchor_interaction);\n        for (uint i=0;i<size;i++){\n            (pending_interaction memory interaction, uint index) = fetch_interaction_by_id(anchor_interaction);\n             (bool next_found, uint next_anchor_interaction) = StructuredLinkedList.getNextNode(list, anchor_interaction);\n            if (interaction.removed == false){\n            if(!contains(pending_domains, interaction.domain)){\n                //execute function\n                // console.log(interaction.id);\n                execute(interaction.task, interaction.instance);\n                StructuredLinkedList.remove(list, anchor_interaction);\n                // pending_interactions[index].removed = true;\n                removeInteraction(index);\n            }\n            else{\n                //do nothing\n            }\n            anchor_interaction = next_anchor_interaction;\n            }\n        }\n        //resetting state\n        vote_count = 0;\n        orderers_count = 0;\n        domain_count = 0;\n        delete orderers;\n        delete pending_domains;\n        index_block = 0;\n    }\n\n    function execute(string memory task_name, uint instanceID) internal{\n        if(compareStrings(task_name, \"orderGoods\")){workflow_contract.orderGoods(instanceID);}\n    }\n\n    function release() external{\n        if(index_block !=0 && block.number >= index_block + block_interval && orderers_count==0){\n            if (domain_count==0){generate_domains();}\n            execute_interactions();\n        }\n        else{\n            revert(\"Cannot Release\");\n        }\n    }\n\n    function is_oderer(address orderer) internal view returns(bool){\n        for(uint i=0;i<orderers.length;i++){\n            if (orderer == orderers[i]){\n                return true;\n            }\n        }\n        return false;\n    }\n\n    function allowed_to_order(address orderer, uint pending_interaction_index) internal view returns(bool){\n        (pending_interaction memory interaction, uint index) = fetch_interaction_by_id(pending_interaction_index);\n        if(interaction.sender == orderer || interaction.receiver == orderer){\n                return true;\n            }\n        return false;\n    }\n\n    function permitted_interactions(address sender) external view returns(uint[] memory){\n        uint interaction_count = 0;\n        for (uint i=0;i<pending_interactions.length;i++){\n            if (pending_interactions[i].removed == true){continue;}\n            if ((pending_interactions[i].sender == sender || pending_interactions[i].receiver == sender)){\n                interaction_count +=1;\n            }\n        }\n        uint[] memory my_interactions = new uint[](interaction_count);\n\n        uint index = 0;\n        for (uint i=0;i<pending_interactions.length;i++){\n            if (pending_interactions[i].removed == true){continue;}\n            if ((pending_interactions[i].sender == sender || pending_interactions[i].receiver == sender)){\n                my_interactions[index++] = pending_interactions[i].id;\n            }\n        }\n        return my_interactions;\n    }\n\n    function fetch_interaction_by_id(uint id) internal view returns(pending_interaction memory, uint){\n        for (uint i=0;i<pending_interactions.length;i++){\n            if(pending_interactions[i].id == id){\n                return (pending_interactions[i], i);\n            }\n        }\n        revert(\"Interaction not found.\");\n    }\n\n    function get_interaction(uint id) external view returns(pending_interaction memory){\n        (pending_interaction memory interaction, uint index) =  fetch_interaction_by_id(id);\n        return interaction;\n    }\n\n    function contains(int32[] memory array, int32 element) internal pure returns(bool){\n        for (uint i=0;i<array.length;i++){\n            if (element == array[i]){\n                return true;\n            }\n        }\n        return false;\n    }\n\n    function is_after(uint node, uint target) internal returns(bool){\n\n        (bool exists, uint256 nextnode) = StructuredLinkedList.getAdjacent(list, node, true);\n\n        if(exists==false || nextnode==0){\n            return false;\n        }\n\n        if (nextnode == target){\n            return true;\n        }\n\n        else{\n            return is_after(nextnode, target);\n        }\n    }\n\n    function list_size() external view returns(uint) {\n        return StructuredLinkedList.sizeOf(list);\n    }\n    \n    function canVote() public view returns(bool){\n        return index_block !=0 && block.number >= index_block + block_interval;\n    }\n\n    function blockNB() public view returns(uint){\n        return block.number;\n    }\n\n    function setWorkflow(address workflowAddress) public{\n        workflow_contract = workflowInterface(workflowAddress);\n    }\n\n    function orderers_length() external view returns(uint){\n        return orderers.length;\n    }\n\n    function removeInteraction(uint _index) internal {\n        require(_index < pending_interactions.length, \"index out of bound\");\n\n        for (uint i = _index; i < pending_interactions.length - 1; i++) {\n            pending_interactions[i] = pending_interactions[i + 1];\n        }\n        pending_interactions.pop();\n    }\n\n    function compareStrings(string memory a, string memory b) public view returns (bool) {\n    return (keccak256(abi.encodePacked((a))) == keccak256(abi.encodePacked((b))));\n    }\n    event Conflict(int32 indexed domain, uint[2] transactions);\n}",
  "sourcePath": "/Users/hassanatwi/PAC/truffle/contracts/ConsensusContract.sol",
  "compiler": {
    "name": "solc",
    "version": "0.8.13+commit.abaa5c0e.Emscripten.clang"
  },
  "schemaVersion": "3.4.16",
  "updatedAt": "2023-12-04T21:41:21.949Z",
  "networkType": "ethereum",
  "devdoc": {
    "kind": "dev",
    "methods": {},
    "version": 1
  },
  "userdoc": {
    "kind": "user",
    "methods": {},
    "version": 1
  }
}