{
  "contractName": "Workflow",
  "abi": [
    {
      "inputs": [],
      "stateMutability": "nonpayable",
      "type": "constructor"
    },
    {
      "inputs": [],
      "name": "instancesCount",
      "outputs": [
        {
          "internalType": "uint256",
          "name": "",
          "type": "uint256"
        }
      ],
      "stateMutability": "view",
      "type": "function",
      "constant": true
    },
    {
      "inputs": [
        {
          "internalType": "uint256",
          "name": "",
          "type": "uint256"
        }
      ],
      "name": "new_candidates_test",
      "outputs": [
        {
          "internalType": "address",
          "name": "",
          "type": "address"
        }
      ],
      "stateMutability": "view",
      "type": "function",
      "constant": true
    },
    {
      "inputs": [],
      "name": "orderingContract",
      "outputs": [
        {
          "internalType": "address",
          "name": "",
          "type": "address"
        }
      ],
      "stateMutability": "view",
      "type": "function",
      "constant": true
    },
    {
      "inputs": [
        {
          "internalType": "address[]",
          "name": "participant",
          "type": "address[]"
        }
      ],
      "name": "newInstance",
      "outputs": [],
      "stateMutability": "nonpayable",
      "type": "function"
    },
    {
      "inputs": [
        {
          "internalType": "uint256",
          "name": "instanceID",
          "type": "uint256"
        }
      ],
      "name": "orderGoods",
      "outputs": [],
      "stateMutability": "nonpayable",
      "type": "function"
    },
    {
      "inputs": [
        {
          "internalType": "uint256",
          "name": "instanceID",
          "type": "uint256"
        }
      ],
      "name": "orderSupplies",
      "outputs": [],
      "stateMutability": "nonpayable",
      "type": "function"
    },
    {
      "inputs": [
        {
          "internalType": "uint256",
          "name": "instanceID",
          "type": "uint256"
        }
      ],
      "name": "replenishSupplies",
      "outputs": [],
      "stateMutability": "nonpayable",
      "type": "function"
    },
    {
      "inputs": [
        {
          "internalType": "uint256",
          "name": "instanceID",
          "type": "uint256"
        }
      ],
      "name": "deliverGoods",
      "outputs": [],
      "stateMutability": "nonpayable",
      "type": "function"
    },
    {
      "inputs": [],
      "name": "getSupplies",
      "outputs": [
        {
          "internalType": "uint256",
          "name": "",
          "type": "uint256"
        }
      ],
      "stateMutability": "view",
      "type": "function",
      "constant": true
    },
    {
      "inputs": [],
      "name": "getInstances",
      "outputs": [
        {
          "internalType": "uint256",
          "name": "",
          "type": "uint256"
        }
      ],
      "stateMutability": "view",
      "type": "function",
      "constant": true
    },
    {
      "inputs": [
        {
          "internalType": "address",
          "name": "buyer",
          "type": "address"
        }
      ],
      "name": "getPendingOrders",
      "outputs": [
        {
          "internalType": "uint256",
          "name": "",
          "type": "uint256"
        }
      ],
      "stateMutability": "view",
      "type": "function",
      "constant": true
    },
    {
      "inputs": [
        {
          "internalType": "uint256",
          "name": "instance",
          "type": "uint256"
        },
        {
          "internalType": "string",
          "name": "task_name",
          "type": "string"
        }
      ],
      "name": "getParticipantsByTask",
      "outputs": [
        {
          "internalType": "address[]",
          "name": "",
          "type": "address[]"
        }
      ],
      "stateMutability": "view",
      "type": "function",
      "constant": true
    },
    {
      "inputs": [
        {
          "internalType": "address",
          "name": "orderingContractAddress",
          "type": "address"
        }
      ],
      "name": "setOrderingContract",
      "outputs": [],
      "stateMutability": "nonpayable",
      "type": "function"
    },
    {
      "inputs": [
        {
          "internalType": "uint256",
          "name": "newSupplies",
          "type": "uint256"
        }
      ],
      "name": "setSupplies",
      "outputs": [],
      "stateMutability": "nonpayable",
      "type": "function"
    },
    {
      "inputs": [
        {
          "internalType": "address",
          "name": "buyer",
          "type": "address"
        }
      ],
      "name": "resetPendingOrders",
      "outputs": [],
      "stateMutability": "nonpayable",
      "type": "function"
    }
  ],
  "bytecode": "0x608060405260405180606001604052806040518060400160405280600a81526020017f42756c6b5f42757965720000000000000000000000000000000000000000000081525081526020016040518060400160405280600c81526020017f4d616e756661637475726572000000000000000000000000000000000000000081525081526020016040518060400160405280600881526020017f537570706c6965720000000000000000000000000000000000000000000000008152508152506000906003620000d0929190620004af565b5060405180608001604052806040518060400160405280600a81526020017f6f72646572476f6f64730000000000000000000000000000000000000000000081525081526020016040518060400160405280600d81526020017f6f72646572537570706c6965730000000000000000000000000000000000000081525081526020016040518060400160405280601181526020017f7265706c656e697368537570706c69657300000000000000000000000000000081525081526020016040518060400160405280600c81526020017f64656c69766572476f6f647300000000000000000000000000000000000000008152508152506001906004620001d892919062000516565b5060006006556064600b55348015620001f057600080fd5b5060405180604001604052806040518060400160405280600a81526020017f42756c6b5f42757965720000000000000000000000000000000000000000000081525081526020016040518060400160405280600c81526020017f4d616e7566616374757265720000000000000000000000000000000000000000815250815250600260405162000280906200075d565b90815260200160405180910390209060026200029e9291906200057d565b5060405180604001604052806040518060400160405280600c81526020017f4d616e756661637475726572000000000000000000000000000000000000000081525081526020016040518060400160405280600881526020017f537570706c69657200000000000000000000000000000000000000000000000081525081525060026040516200032e90620007c4565b90815260200160405180910390209060026200034c9291906200057d565b5060405180604001604052806040518060400160405280600881526020017f537570706c69657200000000000000000000000000000000000000000000000081525081526020016040518060400160405280600a81526020017f42756c6b5f4275796572000000000000000000000000000000000000000000008152508152506002604051620003dc906200082b565b9081526020016040518091039020906002620003fa9291906200057d565b5060405180604001604052806040518060400160405280600c81526020017f4d616e756661637475726572000000000000000000000000000000000000000081525081526020016040518060400160405280600a81526020017f42756c6b5f42757965720000000000000000000000000000000000000000000081525081525060026040516200048a9062000892565b9081526020016040518091039020906002620004a89291906200057d565b506200090d565b82805482825590600052602060002090810192821562000503579160200282015b8281111562000502578251829080519060200190620004f1929190620005e4565b5091602001919060010190620004d0565b5b50905062000512919062000675565b5090565b8280548282559060005260206000209081019282156200056a579160200282015b828111156200056957825182908051906020019062000558929190620005e4565b509160200191906001019062000537565b5b50905062000579919062000675565b5090565b828054828255906000526020600020908101928215620005d1579160200282015b82811115620005d0578251829080519060200190620005bf929190620005e4565b50916020019190600101906200059e565b5b509050620005e0919062000675565b5090565b828054620005f290620008d8565b90600052602060002090601f01602090048101928262000616576000855562000662565b82601f106200063157805160ff191683800117855562000662565b8280016001018555821562000662579182015b828111156200066157825182559160200191906001019062000644565b5b5090506200067191906200069d565b5090565b5b808211156200069957600081816200068f9190620006bc565b5060010162000676565b5090565b5b80821115620006b85760008160009055506001016200069e565b5090565b508054620006ca90620008d8565b6000825580601f10620006de5750620006ff565b601f016020900490600052602060002090810190620006fe91906200069d565b5b50565b600081905092915050565b7f6f72646572476f6f647300000000000000000000000000000000000000000000600082015250565b600062000745600a8362000702565b915062000752826200070d565b600a82019050919050565b60006200076a8262000736565b9150819050919050565b7f6f72646572537570706c69657300000000000000000000000000000000000000600082015250565b6000620007ac600d8362000702565b9150620007b98262000774565b600d82019050919050565b6000620007d1826200079d565b9150819050919050565b7f7265706c656e697368537570706c696573000000000000000000000000000000600082015250565b60006200081360118362000702565b91506200082082620007db565b601182019050919050565b6000620008388262000804565b9150819050919050565b7f64656c69766572476f6f64730000000000000000000000000000000000000000600082015250565b60006200087a600c8362000702565b9150620008878262000842565b600c82019050919050565b60006200089f826200086b565b9150819050919050565b7f4e487b7100000000000000000000000000000000000000000000000000000000600052602260045260246000fd5b60006002820490506001821680620008f157607f821691505b602082108103620009075762000906620008a9565b5b50919050565b611beb806200091d6000396000f3fe608060405234801561001057600080fd5b50600436106100f55760003560e01c80639f6f247711610097578063cb61b29a11610066578063cb61b29a14610248578063d35fdd7914610278578063ef3319b514610296578063fdd590fd146102c6576100f5565b80639f6f2477146101d6578063a451e799146101f2578063bfe3ad4d1461020e578063c873d1aa1461022a576100f5565b80634c73cb25116100d35780634c73cb2514610150578063552f75a01461018057806360c9afdc1461019e57806385a45c25146101ba576100f5565b8063042c8378146100fa5780630a3419e21461011657806347e63e2f14610132575b600080fd5b610114600480360381019061010f9190611235565b6102e2565b005b610130600480360381019061012b9190611235565b6104fc565b005b61013a61066f565b60405161014791906112a3565b60405180910390f35b61016a600480360381019061016591906112ea565b610695565b6040516101779190611326565b60405180910390f35b6101886106de565b6040516101959190611326565b60405180910390f35b6101b860048036038101906101b391906112ea565b6106e4565b005b6101d460048036038101906101cf91906112ea565b61072c565b005b6101f060048036038101906101eb91906113a6565b610770565b005b61020c60048036038101906102079190611235565b610aa2565b005b61022860048036038101906102239190611235565b610c2f565b005b610232610e79565b60405161023f9190611326565b60405180910390f35b610262600480360381019061025d9190611534565b610e83565b60405161026f919061164e565b60405180910390f35b610280611198565b60405161028d9190611326565b60405180910390f35b6102b060048036038101906102ab9190611235565b6111a2565b6040516102bd91906112a3565b60405180910390f35b6102e060048036038101906102db9190611235565b6111e1565b005b600760009054906101000a900473ffffffffffffffffffffffffffffffffffffffff1673ffffffffffffffffffffffffffffffffffffffff163373ffffffffffffffffffffffffffffffffffffffff161461033c57600080fd5b6001151560086000838152602001908152602001600020600101604051610362906116c7565b908152602001604051809103902060009054906101000a900460ff161515146103c0576040517f08c379a00000000000000000000000000000000000000000000000000000000081526004016103b790611739565b60405180910390fd5b6001600a6000600860008581526020019081526020016000206002016040516103e8906117a5565b908152602001604051809103902060009054906101000a900473ffffffffffffffffffffffffffffffffffffffff1673ffffffffffffffffffffffffffffffffffffffff1673ffffffffffffffffffffffffffffffffffffffff168152602001908152602001600020600082825461046091906117e9565b9250508190555060006008600083815260200190815260200160002060010160405161048b906116c7565b908152602001604051809103902060006101000a81548160ff0219169083151502179055506001600860008381526020019081526020016000206001016040516104d490611869565b908152602001604051809103902060006101000a81548160ff02191690831515021790555050565b600760009054906101000a900473ffffffffffffffffffffffffffffffffffffffff1673ffffffffffffffffffffffffffffffffffffffff163373ffffffffffffffffffffffffffffffffffffffff161461055657600080fd5b600115156008600083815260200190815260200160002060010160405161057c906118ca565b908152602001604051809103902060009054906101000a900460ff161515146105da576040517f08c379a00000000000000000000000000000000000000000000000000000000081526004016105d190611739565b60405180910390fd5b6000600860008381526020019081526020016000206001016040516105fe906118ca565b908152602001604051809103902060006101000a81548160ff0219169083151502179055506001600860008381526020019081526020016000206001016040516106479061192b565b908152602001604051809103902060006101000a81548160ff02191690831515021790555050565b600760009054906101000a900473ffffffffffffffffffffffffffffffffffffffff1681565b6000600a60008373ffffffffffffffffffffffffffffffffffffffff1673ffffffffffffffffffffffffffffffffffffffff168152602001908152602001600020549050919050565b60095481565b6000600a60008373ffffffffffffffffffffffffffffffffffffffff1673ffffffffffffffffffffffffffffffffffffffff1681526020019081526020016000208190555050565b80600760006101000a81548173ffffffffffffffffffffffffffffffffffffffff021916908373ffffffffffffffffffffffffffffffffffffffff16021790555050565b6009600081548092919061078390611940565b919050555060095460086000600954815260200190815260200160002060000181905550818160008181106107bb576107ba611988565b5b90506020020160208101906107d091906112ea565b6008600060095481526020019081526020016000206002016040516107f4906117a5565b908152602001604051809103902060006101000a81548173ffffffffffffffffffffffffffffffffffffffff021916908373ffffffffffffffffffffffffffffffffffffffff1602179055508181600181811061085457610853611988565b5b905060200201602081019061086991906112ea565b60086000600954815260200190815260200160002060020160405161088d90611a03565b908152602001604051809103902060006101000a81548173ffffffffffffffffffffffffffffffffffffffff021916908373ffffffffffffffffffffffffffffffffffffffff160217905550818160028181106108ed576108ec611988565b5b905060200201602081019061090291906112ea565b60086000600954815260200190815260200160002060020160405161092690611a64565b908152602001604051809103902060006101000a81548173ffffffffffffffffffffffffffffffffffffffff021916908373ffffffffffffffffffffffffffffffffffffffff160217905550600160086000600954815260200190815260200160002060010160405161099890611869565b908152602001604051809103902060006101000a81548160ff02191690831515021790555060006008600060095481526020019081526020016000206001016040516109e3906118ca565b908152602001604051809103902060006101000a81548160ff0219169083151502179055506000600860006009548152602001908152602001600020600101604051610a2e9061192b565b908152602001604051809103902060006101000a81548160ff0219169083151502179055506000600860006009548152602001908152602001600020600101604051610a79906116c7565b908152602001604051809103902060006101000a81548160ff0219169083151502179055505050565b600760009054906101000a900473ffffffffffffffffffffffffffffffffffffffff1673ffffffffffffffffffffffffffffffffffffffff163373ffffffffffffffffffffffffffffffffffffffff1614610afc57600080fd5b6001151560086000838152602001908152602001600020600101604051610b229061192b565b908152602001604051809103902060009054906101000a900460ff16151514610b80576040517f08c379a0000000000000000000000000000000000000000000000000000000008152600401610b7790611739565b60405180910390fd5b6001600b6000828254610b939190611a79565b92505081905550600060086000838152602001908152602001600020600101604051610bbe9061192b565b908152602001604051809103902060006101000a81548160ff021916908315150217905550600160086000838152602001908152602001600020600101604051610c07906116c7565b908152602001604051809103902060006101000a81548160ff02191690831515021790555050565b600760009054906101000a900473ffffffffffffffffffffffffffffffffffffffff1673ffffffffffffffffffffffffffffffffffffffff163373ffffffffffffffffffffffffffffffffffffffff1614610c8957600080fd5b6001151560086000838152602001908152602001600020600101604051610caf90611869565b908152602001604051809103902060009054906101000a900460ff16151514610d0d576040517f08c379a0000000000000000000000000000000000000000000000000000000008152600401610d0490611739565b60405180910390fd5b6000600b5411610d6557600160086000838152602001908152602001600020600101604051610d3b906118ca565b908152602001604051809103902060006101000a81548160ff021916908315150217905550610e76565b6001600b6000828254610d7891906117e9565b92505081905550600060086000838152602001908152602001600020600201604051610da3906117a5565b908152602001604051809103902060009054906101000a900473ffffffffffffffffffffffffffffffffffffffff1690506001600a60008373ffffffffffffffffffffffffffffffffffffffff1673ffffffffffffffffffffffffffffffffffffffff1681526020019081526020016000206000828254610e249190611a79565b92505081905550600160086000848152602001908152602001600020600101604051610e4f906116c7565b908152602001604051809103902060006101000a81548160ff021916908315150217905550505b50565b6000600b54905090565b6060600115156008600085815260200190815260200160002060010183604051610ead9190611b3e565b908152602001604051809103902060009054906101000a900460ff16151514610ed557600080fd5b6000600267ffffffffffffffff811115610ef257610ef1611409565b5b604051908082528060200260200182016040528015610f205781602001602082028036833780820191505090505b5090506000600284604051610f359190611b3e565b9081526020016040518091039020805480602002602001604051908101604052809291908181526020016000905b8282101561100f578382906000526020600020018054610f8290611b84565b80601f0160208091040260200160405190810160405280929190818152602001828054610fae90611b84565b8015610ffb5780601f10610fd057610100808354040283529160200191610ffb565b820191906000526020600020905b815481529060010190602001808311610fde57829003601f168201915b505050505081526020019060010190610f63565b505050509050600860008681526020019081526020016000206002018160008151811061103f5761103e611988565b5b60200260200101516040516110549190611b3e565b908152602001604051809103902060009054906101000a900473ffffffffffffffffffffffffffffffffffffffff168260008151811061109757611096611988565b5b602002602001019073ffffffffffffffffffffffffffffffffffffffff16908173ffffffffffffffffffffffffffffffffffffffff168152505060086000868152602001908152602001600020600201816001815181106110fb576110fa611988565b5b60200260200101516040516111109190611b3e565b908152602001604051809103902060009054906101000a900473ffffffffffffffffffffffffffffffffffffffff168260018151811061115357611152611988565b5b602002602001019073ffffffffffffffffffffffffffffffffffffffff16908173ffffffffffffffffffffffffffffffffffffffff1681525050819250505092915050565b6000600954905090565b600581815481106111b257600080fd5b906000526020600020016000915054906101000a900473ffffffffffffffffffffffffffffffffffffffff1681565b80600b8190555050565b6000604051905090565b600080fd5b600080fd5b6000819050919050565b611212816111ff565b811461121d57600080fd5b50565b60008135905061122f81611209565b92915050565b60006020828403121561124b5761124a6111f5565b5b600061125984828501611220565b91505092915050565b600073ffffffffffffffffffffffffffffffffffffffff82169050919050565b600061128d82611262565b9050919050565b61129d81611282565b82525050565b60006020820190506112b86000830184611294565b92915050565b6112c781611282565b81146112d257600080fd5b50565b6000813590506112e4816112be565b92915050565b600060208284031215611300576112ff6111f5565b5b600061130e848285016112d5565b91505092915050565b611320816111ff565b82525050565b600060208201905061133b6000830184611317565b92915050565b600080fd5b600080fd5b600080fd5b60008083601f84011261136657611365611341565b5b8235905067ffffffffffffffff81111561138357611382611346565b5b60208301915083602082028301111561139f5761139e61134b565b5b9250929050565b600080602083850312156113bd576113bc6111f5565b5b600083013567ffffffffffffffff8111156113db576113da6111fa565b5b6113e785828601611350565b92509250509250929050565b600080fd5b6000601f19601f8301169050919050565b7f4e487b7100000000000000000000000000000000000000000000000000000000600052604160045260246000fd5b611441826113f8565b810181811067ffffffffffffffff821117156114605761145f611409565b5b80604052505050565b60006114736111eb565b905061147f8282611438565b919050565b600067ffffffffffffffff82111561149f5761149e611409565b5b6114a8826113f8565b9050602081019050919050565b82818337600083830152505050565b60006114d76114d284611484565b611469565b9050828152602081018484840111156114f3576114f26113f3565b5b6114fe8482856114b5565b509392505050565b600082601f83011261151b5761151a611341565b5b813561152b8482602086016114c4565b91505092915050565b6000806040838503121561154b5761154a6111f5565b5b600061155985828601611220565b925050602083013567ffffffffffffffff81111561157a576115796111fa565b5b61158685828601611506565b9150509250929050565b600081519050919050565b600082825260208201905092915050565b6000819050602082019050919050565b6115c581611282565b82525050565b60006115d783836115bc565b60208301905092915050565b6000602082019050919050565b60006115fb82611590565b611605818561159b565b9350611610836115ac565b8060005b8381101561164157815161162888826115cb565b9750611633836115e3565b925050600181019050611614565b5085935050505092915050565b6000602082019050818103600083015261166881846115f0565b905092915050565b600081905092915050565b7f64656c69766572476f6f64730000000000000000000000000000000000000000600082015250565b60006116b1600c83611670565b91506116bc8261167b565b600c82019050919050565b60006116d2826116a4565b9150819050919050565b600082825260208201905092915050565b7f57726f6e6720657865637574696f6e206f726465720000000000000000000000600082015250565b60006117236015836116dc565b915061172e826116ed565b602082019050919050565b6000602082019050818103600083015261175281611716565b9050919050565b7f42756c6b5f427579657200000000000000000000000000000000000000000000600082015250565b600061178f600a83611670565b915061179a82611759565b600a82019050919050565b60006117b082611782565b9150819050919050565b7f4e487b7100000000000000000000000000000000000000000000000000000000600052601160045260246000fd5b60006117f4826111ff565b91506117ff836111ff565b925082821015611812576118116117ba565b5b828203905092915050565b7f6f72646572476f6f647300000000000000000000000000000000000000000000600082015250565b6000611853600a83611670565b915061185e8261181d565b600a82019050919050565b600061187482611846565b9150819050919050565b7f6f72646572537570706c69657300000000000000000000000000000000000000600082015250565b60006118b4600d83611670565b91506118bf8261187e565b600d82019050919050565b60006118d5826118a7565b9150819050919050565b7f7265706c656e697368537570706c696573000000000000000000000000000000600082015250565b6000611915601183611670565b9150611920826118df565b601182019050919050565b600061193682611908565b9150819050919050565b600061194b826111ff565b91507fffffffffffffffffffffffffffffffffffffffffffffffffffffffffffffffff820361197d5761197c6117ba565b5b600182019050919050565b7f4e487b7100000000000000000000000000000000000000000000000000000000600052603260045260246000fd5b7f4d616e7566616374757265720000000000000000000000000000000000000000600082015250565b60006119ed600c83611670565b91506119f8826119b7565b600c82019050919050565b6000611a0e826119e0565b9150819050919050565b7f537570706c696572000000000000000000000000000000000000000000000000600082015250565b6000611a4e600883611670565b9150611a5982611a18565b600882019050919050565b6000611a6f82611a41565b9150819050919050565b6000611a84826111ff565b9150611a8f836111ff565b9250827fffffffffffffffffffffffffffffffffffffffffffffffffffffffffffffffff03821115611ac457611ac36117ba565b5b828201905092915050565b600081519050919050565b60005b83811015611af8578082015181840152602081019050611add565b83811115611b07576000848401525b50505050565b6000611b1882611acf565b611b228185611670565b9350611b32818560208601611ada565b80840191505092915050565b6000611b4a8284611b0d565b915081905092915050565b7f4e487b7100000000000000000000000000000000000000000000000000000000600052602260045260246000fd5b60006002820490506001821680611b9c57607f821691505b602082108103611baf57611bae611b55565b5b5091905056fea26469706673582212206765de49526777c68e5d0acde7167171174d9802ceb309b78a133856cd2e94c964736f6c634300080d0033",
  "immutableReferences": {},
  "source": "pragma solidity ^0.8.0;\n\nimport './workflowInterface.sol';\n\ncontract Workflow is workflowInterface{\n\n    string[] roleList = [\"Bulk_Buyer\", \"Manufacturer\", \"Supplier\"];\n    string[] taskList = [\"orderGoods\", \"orderSupplies\", \"replenishSupplies\", \"deliverGoods\"];\n    mapping(string=>string[]) rolesToTask;\n\n    mapping(uint=>address) candidates;\n    uint candidatesCount;\n    address[] public new_candidates_test;\n    uint blockNumber = 0;\n\n    address public orderingContract;\n\n    struct workflowInstance{\n        uint workflowID;\n        mapping(string=>bool) tasks_state;\n        mapping(string=>address) participants;\n    }\n \n    mapping(uint => workflowInstance) instances;\n    uint public instancesCount;\n\n    mapping(address=>uint) pending_orders;\n    uint supplies = 100;\n\n    // modifier checkRole(string memory role, uint instanceID){\n    //     require(msg.sender == instances[instanceID].participants[role]);\n    //     _;\n    // }\n\n    modifier checkCaller(){\n        require(msg.sender == orderingContract);\n        _;\n    }\n\n\n    constructor() public {\n        rolesToTask[\"orderGoods\"] = [\"Bulk_Buyer\",\"Manufacturer\"];\n        rolesToTask[\"orderSupplies\"] = [\"Manufacturer\",\"Supplier\"];\n        rolesToTask[\"replenishSupplies\"] = [\"Supplier\",\"Bulk_Buyer\"];\n        rolesToTask[\"deliverGoods\"] = [\"Manufacturer\",\"Bulk_Buyer\"];\n    }\n\n    function newInstance(address[] calldata participant) override external {\n\n        instancesCount++;\n        instances[instancesCount].workflowID = instancesCount;\n        instances[instancesCount].participants[\"Bulk_Buyer\"] = participant[0];\n        instances[instancesCount].participants[\"Manufacturer\"] = participant[1];\n        instances[instancesCount].participants[\"Supplier\"] = participant[2];\n\n        instances[instancesCount].tasks_state[\"orderGoods\"] = true;\n        instances[instancesCount].tasks_state[\"orderSupplies\"] = false;\n        instances[instancesCount].tasks_state[\"replenishSupplies\"] = false;\n        instances[instancesCount].tasks_state[\"deliverGoods\"] = false;\n    }\n\n\n    function orderGoods(uint instanceID) override external \n    checkCaller(){\n        require(instances[instanceID].tasks_state[\"orderGoods\"] == true , \"Wrong execution order\");\n       \n        if(supplies <= 0){\n            // instances[instanceID].tasks_state[\"orderGoods\"] = false;\n            instances[instanceID].tasks_state[\"orderSupplies\"] = true;\n        }\n        else{\n            supplies -=1;\n            address buyer = instances[instanceID].participants[\"Bulk_Buyer\"];\n            pending_orders[buyer] +=1;\n            // instances[instanceID].tasks_state[\"orderGoods\"] = false;\n            instances[instanceID].tasks_state[\"deliverGoods\"] = true;\n        }\n    }\n\n    function orderSupplies(uint instanceID) override external \n    checkCaller(){\n        require(instances[instanceID].tasks_state[\"orderSupplies\"] == true, \"Wrong execution order\");\n        instances[instanceID].tasks_state[\"orderSupplies\"] = false;\n        instances[instanceID].tasks_state[\"replenishSupplies\"] = true;\n    }\n\n    function replenishSupplies(uint instanceID) override external \n    checkCaller(){\n        require(instances[instanceID].tasks_state[\"replenishSupplies\"] == true, \"Wrong execution order\");\n        supplies +=1;\n        instances[instanceID].tasks_state[\"replenishSupplies\"] = false;\n        instances[instanceID].tasks_state[\"deliverGoods\"] = true;\n    }\n\n    function deliverGoods(uint instanceID) override external \n    checkCaller(){\n        require(instances[instanceID].tasks_state[\"deliverGoods\"] == true, \"Wrong execution order\");\n        pending_orders[instances[instanceID].participants[\"Bulk_Buyer\"]] -=1;\n        instances[instanceID].tasks_state[\"deliverGoods\"] = false;\n        instances[instanceID].tasks_state[\"orderGoods\"] = true;\n    }\n\n    function getSupplies() override external  view returns(uint){\n        return supplies;\n    }\n\n    function getInstances() override external view returns(uint){\n        return instancesCount;\n    }\n\n    function getPendingOrders(address buyer) override external  view returns(uint){\n        return pending_orders[buyer];\n    }\n\n    function getParticipantsByTask(uint instance, string memory task_name) override external view returns(address[] memory){\n        require(instances[instance].tasks_state[task_name] == true);\n        address[] memory participants = new address[](2);\n        string[] memory roles = rolesToTask[task_name];\n        participants[0] = instances[instance].participants[roles[0]];\n        participants[1] = instances[instance].participants[roles[1]];\n        return participants;\n    }\n\n    function setOrderingContract(address orderingContractAddress) external{\n        orderingContract = orderingContractAddress;\n    }\n\n    function setSupplies(uint newSupplies) external{\n        supplies = newSupplies;\n    }\n\n    function resetPendingOrders(address buyer) external{\n        pending_orders[buyer] = 0;\n    }\n}\n",
  "sourcePath": "/Users/hassanatwi/PAC/truffle/contracts/Workflow.sol",
  "compiler": {
    "name": "solc",
    "version": "0.8.13+commit.abaa5c0e.Emscripten.clang"
  },
  "schemaVersion": "3.4.16",
  "updatedAt": "2023-12-04T21:41:21.925Z",
  "networkType": "ethereum",
  "devdoc": {
    "kind": "dev",
    "methods": {},
    "version": 1
  },
  "userdoc": {
    "kind": "user",
    "methods": {},
    "version": 1
  }
}