{
  "contractName": "WorkflowOld",
  "abi": [
    {
      "inputs": [],
      "stateMutability": "nonpayable",
      "type": "constructor"
    },
    {
      "inputs": [],
      "name": "instancesCount",
      "outputs": [
        {
          "internalType": "uint256",
          "name": "",
          "type": "uint256"
        }
      ],
      "stateMutability": "view",
      "type": "function",
      "constant": true
    },
    {
      "inputs": [
        {
          "internalType": "uint256",
          "name": "",
          "type": "uint256"
        }
      ],
      "name": "new_candidates_test",
      "outputs": [
        {
          "internalType": "address",
          "name": "",
          "type": "address"
        }
      ],
      "stateMutability": "view",
      "type": "function",
      "constant": true
    },
    {
      "inputs": [],
      "name": "orderingContract",
      "outputs": [
        {
          "internalType": "address",
          "name": "",
          "type": "address"
        }
      ],
      "stateMutability": "view",
      "type": "function",
      "constant": true
    },
    {
      "inputs": [
        {
          "internalType": "address[]",
          "name": "participant",
          "type": "address[]"
        }
      ],
      "name": "newInstance",
      "outputs": [],
      "stateMutability": "nonpayable",
      "type": "function"
    },
    {
      "inputs": [
        {
          "internalType": "uint256",
          "name": "instanceID",
          "type": "uint256"
        }
      ],
      "name": "orderGoods",
      "outputs": [],
      "stateMutability": "nonpayable",
      "type": "function"
    },
    {
      "inputs": [
        {
          "internalType": "uint256",
          "name": "instanceID",
          "type": "uint256"
        }
      ],
      "name": "orderSupplies",
      "outputs": [],
      "stateMutability": "nonpayable",
      "type": "function"
    },
    {
      "inputs": [
        {
          "internalType": "uint256",
          "name": "instanceID",
          "type": "uint256"
        }
      ],
      "name": "replenishSupplies",
      "outputs": [],
      "stateMutability": "nonpayable",
      "type": "function"
    },
    {
      "inputs": [
        {
          "internalType": "uint256",
          "name": "instanceID",
          "type": "uint256"
        }
      ],
      "name": "deliverGoods",
      "outputs": [],
      "stateMutability": "nonpayable",
      "type": "function"
    },
    {
      "inputs": [],
      "name": "getSupplies",
      "outputs": [
        {
          "internalType": "uint256",
          "name": "",
          "type": "uint256"
        }
      ],
      "stateMutability": "view",
      "type": "function",
      "constant": true
    },
    {
      "inputs": [],
      "name": "getInstances",
      "outputs": [
        {
          "internalType": "uint256",
          "name": "",
          "type": "uint256"
        }
      ],
      "stateMutability": "view",
      "type": "function",
      "constant": true
    },
    {
      "inputs": [
        {
          "internalType": "address",
          "name": "buyer",
          "type": "address"
        }
      ],
      "name": "getPendingOrders",
      "outputs": [
        {
          "internalType": "uint256",
          "name": "",
          "type": "uint256"
        }
      ],
      "stateMutability": "view",
      "type": "function",
      "constant": true
    },
    {
      "inputs": [
        {
          "internalType": "uint256",
          "name": "instance",
          "type": "uint256"
        },
        {
          "internalType": "string",
          "name": "task_name",
          "type": "string"
        }
      ],
      "name": "getParticipantsByTask",
      "outputs": [
        {
          "internalType": "address[]",
          "name": "",
          "type": "address[]"
        }
      ],
      "stateMutability": "view",
      "type": "function",
      "constant": true
    },
    {
      "inputs": [
        {
          "internalType": "address",
          "name": "orderingContractAddress",
          "type": "address"
        }
      ],
      "name": "setOrderingContract",
      "outputs": [],
      "stateMutability": "nonpayable",
      "type": "function"
    },
    {
      "inputs": [
        {
          "internalType": "uint256",
          "name": "newSupplies",
          "type": "uint256"
        }
      ],
      "name": "setSupplies",
      "outputs": [],
      "stateMutability": "nonpayable",
      "type": "function"
    },
    {
      "inputs": [
        {
          "internalType": "address",
          "name": "buyer",
          "type": "address"
        }
      ],
      "name": "resetPendingOrders",
      "outputs": [],
      "stateMutability": "nonpayable",
      "type": "function"
    }
  ],
  "bytecode": "0x608060405260405180606001604052806040518060400160405280600a81526020017f42756c6b5f42757965720000000000000000000000000000000000000000000081525081526020016040518060400160405280600c81526020017f4d616e756661637475726572000000000000000000000000000000000000000081525081526020016040518060400160405280600881526020017f537570706c6965720000000000000000000000000000000000000000000000008152508152506000906003620000d0929190620004af565b5060405180608001604052806040518060400160405280600a81526020017f6f72646572476f6f64730000000000000000000000000000000000000000000081525081526020016040518060400160405280600d81526020017f6f72646572537570706c6965730000000000000000000000000000000000000081525081526020016040518060400160405280601181526020017f7265706c656e697368537570706c69657300000000000000000000000000000081525081526020016040518060400160405280600c81526020017f64656c69766572476f6f647300000000000000000000000000000000000000008152508152506001906004620001d892919062000516565b5060006006556064600b55348015620001f057600080fd5b5060405180604001604052806040518060400160405280600a81526020017f42756c6b5f42757965720000000000000000000000000000000000000000000081525081526020016040518060400160405280600c81526020017f4d616e7566616374757265720000000000000000000000000000000000000000815250815250600260405162000280906200075d565b90815260200160405180910390209060026200029e9291906200057d565b5060405180604001604052806040518060400160405280600c81526020017f4d616e756661637475726572000000000000000000000000000000000000000081525081526020016040518060400160405280600881526020017f537570706c69657200000000000000000000000000000000000000000000000081525081525060026040516200032e90620007c4565b90815260200160405180910390209060026200034c9291906200057d565b5060405180604001604052806040518060400160405280600881526020017f537570706c69657200000000000000000000000000000000000000000000000081525081526020016040518060400160405280600a81526020017f42756c6b5f4275796572000000000000000000000000000000000000000000008152508152506002604051620003dc906200082b565b9081526020016040518091039020906002620003fa9291906200057d565b5060405180604001604052806040518060400160405280600c81526020017f4d616e756661637475726572000000000000000000000000000000000000000081525081526020016040518060400160405280600a81526020017f42756c6b5f42757965720000000000000000000000000000000000000000000081525081525060026040516200048a9062000892565b9081526020016040518091039020906002620004a89291906200057d565b506200090d565b82805482825590600052602060002090810192821562000503579160200282015b8281111562000502578251829080519060200190620004f1929190620005e4565b5091602001919060010190620004d0565b5b50905062000512919062000675565b5090565b8280548282559060005260206000209081019282156200056a579160200282015b828111156200056957825182908051906020019062000558929190620005e4565b509160200191906001019062000537565b5b50905062000579919062000675565b5090565b828054828255906000526020600020908101928215620005d1579160200282015b82811115620005d0578251829080519060200190620005bf929190620005e4565b50916020019190600101906200059e565b5b509050620005e0919062000675565b5090565b828054620005f290620008d8565b90600052602060002090601f01602090048101928262000616576000855562000662565b82601f106200063157805160ff191683800117855562000662565b8280016001018555821562000662579182015b828111156200066157825182559160200191906001019062000644565b5b5090506200067191906200069d565b5090565b5b808211156200069957600081816200068f9190620006bc565b5060010162000676565b5090565b5b80821115620006b85760008160009055506001016200069e565b5090565b508054620006ca90620008d8565b6000825580601f10620006de5750620006ff565b601f016020900490600052602060002090810190620006fe91906200069d565b5b50565b600081905092915050565b7f6f72646572476f6f647300000000000000000000000000000000000000000000600082015250565b600062000745600a8362000702565b915062000752826200070d565b600a82019050919050565b60006200076a8262000736565b9150819050919050565b7f6f72646572537570706c69657300000000000000000000000000000000000000600082015250565b6000620007ac600d8362000702565b9150620007b98262000774565b600d82019050919050565b6000620007d1826200079d565b9150819050919050565b7f7265706c656e697368537570706c696573000000000000000000000000000000600082015250565b60006200081360118362000702565b91506200082082620007db565b601182019050919050565b6000620008388262000804565b9150819050919050565b7f64656c69766572476f6f64730000000000000000000000000000000000000000600082015250565b60006200087a600c8362000702565b9150620008878262000842565b600c82019050919050565b60006200089f826200086b565b9150819050919050565b7f4e487b7100000000000000000000000000000000000000000000000000000000600052602260045260246000fd5b60006002820490506001821680620008f157607f821691505b602082108103620009075762000906620008a9565b5b50919050565b611a83806200091d6000396000f3fe608060405234801561001057600080fd5b50600436106100f55760003560e01c80639f6f247711610097578063cb61b29a11610066578063cb61b29a14610248578063d35fdd7914610278578063ef3319b514610296578063fdd590fd146102c6576100f5565b80639f6f2477146101d6578063a451e799146101f2578063bfe3ad4d1461020e578063c873d1aa1461022a576100f5565b80634c73cb25116100d35780634c73cb2514610150578063552f75a01461018057806360c9afdc1461019e57806385a45c25146101ba576100f5565b8063042c8378146100fa5780630a3419e21461011657806347e63e2f14610132575b600080fd5b610114600480360381019061010f91906110cd565b6102e2565b005b610130600480360381019061012b91906110cd565b6104a2565b005b61013a6105bb565b604051610147919061113b565b60405180910390f35b61016a60048036038101906101659190611182565b6105e1565b60405161017791906111be565b60405180910390f35b61018861062a565b60405161019591906111be565b60405180910390f35b6101b860048036038101906101b39190611182565b610630565b005b6101d460048036038101906101cf9190611182565b610678565b005b6101f060048036038101906101eb919061123e565b6106bc565b005b61020c600480360381019061020791906110cd565b6109ee565b005b610228600480360381019061022391906110cd565b610b21565b005b610232610d11565b60405161023f91906111be565b60405180910390f35b610262600480360381019061025d91906113cc565b610d1b565b60405161026f91906114e6565b60405180910390f35b610280611030565b60405161028d91906111be565b60405180910390f35b6102b060048036038101906102ab91906110cd565b61103a565b6040516102bd919061113b565b60405180910390f35b6102e060048036038101906102db91906110cd565b611079565b005b60011515600860008381526020019081526020016000206001016040516103089061155f565b908152602001604051809103902060009054906101000a900460ff16151514610366576040517f08c379a000000000000000000000000000000000000000000000000000000000815260040161035d906115d1565b60405180910390fd5b6001600a60006008600085815260200190815260200160002060020160405161038e9061163d565b908152602001604051809103902060009054906101000a900473ffffffffffffffffffffffffffffffffffffffff1673ffffffffffffffffffffffffffffffffffffffff1673ffffffffffffffffffffffffffffffffffffffff16815260200190815260200160002060008282546104069190611681565b925050819055506000600860008381526020019081526020016000206001016040516104319061155f565b908152602001604051809103902060006101000a81548160ff02191690831515021790555060016008600083815260200190815260200160002060010160405161047a90611701565b908152602001604051809103902060006101000a81548160ff02191690831515021790555050565b60011515600860008381526020019081526020016000206001016040516104c890611762565b908152602001604051809103902060009054906101000a900460ff16151514610526576040517f08c379a000000000000000000000000000000000000000000000000000000000815260040161051d906115d1565b60405180910390fd5b60006008600083815260200190815260200160002060010160405161054a90611762565b908152602001604051809103902060006101000a81548160ff021916908315150217905550600160086000838152602001908152602001600020600101604051610593906117c3565b908152602001604051809103902060006101000a81548160ff02191690831515021790555050565b600760009054906101000a900473ffffffffffffffffffffffffffffffffffffffff1681565b6000600a60008373ffffffffffffffffffffffffffffffffffffffff1673ffffffffffffffffffffffffffffffffffffffff168152602001908152602001600020549050919050565b60095481565b6000600a60008373ffffffffffffffffffffffffffffffffffffffff1673ffffffffffffffffffffffffffffffffffffffff1681526020019081526020016000208190555050565b80600760006101000a81548173ffffffffffffffffffffffffffffffffffffffff021916908373ffffffffffffffffffffffffffffffffffffffff16021790555050565b600960008154809291906106cf906117d8565b9190505550600954600860006009548152602001908152602001600020600001819055508181600081811061070757610706611820565b5b905060200201602081019061071c9190611182565b6008600060095481526020019081526020016000206002016040516107409061163d565b908152602001604051809103902060006101000a81548173ffffffffffffffffffffffffffffffffffffffff021916908373ffffffffffffffffffffffffffffffffffffffff160217905550818160018181106107a05761079f611820565b5b90506020020160208101906107b59190611182565b6008600060095481526020019081526020016000206002016040516107d99061189b565b908152602001604051809103902060006101000a81548173ffffffffffffffffffffffffffffffffffffffff021916908373ffffffffffffffffffffffffffffffffffffffff1602179055508181600281811061083957610838611820565b5b905060200201602081019061084e9190611182565b600860006009548152602001908152602001600020600201604051610872906118fc565b908152602001604051809103902060006101000a81548173ffffffffffffffffffffffffffffffffffffffff021916908373ffffffffffffffffffffffffffffffffffffffff16021790555060016008600060095481526020019081526020016000206001016040516108e490611701565b908152602001604051809103902060006101000a81548160ff021916908315150217905550600060086000600954815260200190815260200160002060010160405161092f90611762565b908152602001604051809103902060006101000a81548160ff021916908315150217905550600060086000600954815260200190815260200160002060010160405161097a906117c3565b908152602001604051809103902060006101000a81548160ff02191690831515021790555060006008600060095481526020019081526020016000206001016040516109c59061155f565b908152602001604051809103902060006101000a81548160ff0219169083151502179055505050565b6001151560086000838152602001908152602001600020600101604051610a14906117c3565b908152602001604051809103902060009054906101000a900460ff16151514610a72576040517f08c379a0000000000000000000000000000000000000000000000000000000008152600401610a69906115d1565b60405180910390fd5b6001600b6000828254610a859190611911565b92505081905550600060086000838152602001908152602001600020600101604051610ab0906117c3565b908152602001604051809103902060006101000a81548160ff021916908315150217905550600160086000838152602001908152602001600020600101604051610af99061155f565b908152602001604051809103902060006101000a81548160ff02191690831515021790555050565b6001151560086000838152602001908152602001600020600101604051610b4790611701565b908152602001604051809103902060009054906101000a900460ff16151514610ba5576040517f08c379a0000000000000000000000000000000000000000000000000000000008152600401610b9c906115d1565b60405180910390fd5b6000600b5411610bfd57600160086000838152602001908152602001600020600101604051610bd390611762565b908152602001604051809103902060006101000a81548160ff021916908315150217905550610d0e565b6001600b6000828254610c109190611681565b92505081905550600060086000838152602001908152602001600020600201604051610c3b9061163d565b908152602001604051809103902060009054906101000a900473ffffffffffffffffffffffffffffffffffffffff1690506001600a60008373ffffffffffffffffffffffffffffffffffffffff1673ffffffffffffffffffffffffffffffffffffffff1681526020019081526020016000206000828254610cbc9190611911565b92505081905550600160086000848152602001908152602001600020600101604051610ce79061155f565b908152602001604051809103902060006101000a81548160ff021916908315150217905550505b50565b6000600b54905090565b6060600115156008600085815260200190815260200160002060010183604051610d4591906119d6565b908152602001604051809103902060009054906101000a900460ff16151514610d6d57600080fd5b6000600267ffffffffffffffff811115610d8a57610d896112a1565b5b604051908082528060200260200182016040528015610db85781602001602082028036833780820191505090505b5090506000600284604051610dcd91906119d6565b9081526020016040518091039020805480602002602001604051908101604052809291908181526020016000905b82821015610ea7578382906000526020600020018054610e1a90611a1c565b80601f0160208091040260200160405190810160405280929190818152602001828054610e4690611a1c565b8015610e935780601f10610e6857610100808354040283529160200191610e93565b820191906000526020600020905b815481529060010190602001808311610e7657829003601f168201915b505050505081526020019060010190610dfb565b5050505090506008600086815260200190815260200160002060020181600081518110610ed757610ed6611820565b5b6020026020010151604051610eec91906119d6565b908152602001604051809103902060009054906101000a900473ffffffffffffffffffffffffffffffffffffffff1682600081518110610f2f57610f2e611820565b5b602002602001019073ffffffffffffffffffffffffffffffffffffffff16908173ffffffffffffffffffffffffffffffffffffffff16815250506008600086815260200190815260200160002060020181600181518110610f9357610f92611820565b5b6020026020010151604051610fa891906119d6565b908152602001604051809103902060009054906101000a900473ffffffffffffffffffffffffffffffffffffffff1682600181518110610feb57610fea611820565b5b602002602001019073ffffffffffffffffffffffffffffffffffffffff16908173ffffffffffffffffffffffffffffffffffffffff1681525050819250505092915050565b6000600954905090565b6005818154811061104a57600080fd5b906000526020600020016000915054906101000a900473ffffffffffffffffffffffffffffffffffffffff1681565b80600b8190555050565b6000604051905090565b600080fd5b600080fd5b6000819050919050565b6110aa81611097565b81146110b557600080fd5b50565b6000813590506110c7816110a1565b92915050565b6000602082840312156110e3576110e261108d565b5b60006110f1848285016110b8565b91505092915050565b600073ffffffffffffffffffffffffffffffffffffffff82169050919050565b6000611125826110fa565b9050919050565b6111358161111a565b82525050565b6000602082019050611150600083018461112c565b92915050565b61115f8161111a565b811461116a57600080fd5b50565b60008135905061117c81611156565b92915050565b6000602082840312156111985761119761108d565b5b60006111a68482850161116d565b91505092915050565b6111b881611097565b82525050565b60006020820190506111d360008301846111af565b92915050565b600080fd5b600080fd5b600080fd5b60008083601f8401126111fe576111fd6111d9565b5b8235905067ffffffffffffffff81111561121b5761121a6111de565b5b602083019150836020820283011115611237576112366111e3565b5b9250929050565b600080602083850312156112555761125461108d565b5b600083013567ffffffffffffffff81111561127357611272611092565b5b61127f858286016111e8565b92509250509250929050565b600080fd5b6000601f19601f8301169050919050565b7f4e487b7100000000000000000000000000000000000000000000000000000000600052604160045260246000fd5b6112d982611290565b810181811067ffffffffffffffff821117156112f8576112f76112a1565b5b80604052505050565b600061130b611083565b905061131782826112d0565b919050565b600067ffffffffffffffff821115611337576113366112a1565b5b61134082611290565b9050602081019050919050565b82818337600083830152505050565b600061136f61136a8461131c565b611301565b90508281526020810184848401111561138b5761138a61128b565b5b61139684828561134d565b509392505050565b600082601f8301126113b3576113b26111d9565b5b81356113c384826020860161135c565b91505092915050565b600080604083850312156113e3576113e261108d565b5b60006113f1858286016110b8565b925050602083013567ffffffffffffffff81111561141257611411611092565b5b61141e8582860161139e565b9150509250929050565b600081519050919050565b600082825260208201905092915050565b6000819050602082019050919050565b61145d8161111a565b82525050565b600061146f8383611454565b60208301905092915050565b6000602082019050919050565b600061149382611428565b61149d8185611433565b93506114a883611444565b8060005b838110156114d95781516114c08882611463565b97506114cb8361147b565b9250506001810190506114ac565b5085935050505092915050565b600060208201905081810360008301526115008184611488565b905092915050565b600081905092915050565b7f64656c69766572476f6f64730000000000000000000000000000000000000000600082015250565b6000611549600c83611508565b915061155482611513565b600c82019050919050565b600061156a8261153c565b9150819050919050565b600082825260208201905092915050565b7f57726f6e6720657865637574696f6e206f726465720000000000000000000000600082015250565b60006115bb601583611574565b91506115c682611585565b602082019050919050565b600060208201905081810360008301526115ea816115ae565b9050919050565b7f42756c6b5f427579657200000000000000000000000000000000000000000000600082015250565b6000611627600a83611508565b9150611632826115f1565b600a82019050919050565b60006116488261161a565b9150819050919050565b7f4e487b7100000000000000000000000000000000000000000000000000000000600052601160045260246000fd5b600061168c82611097565b915061169783611097565b9250828210156116aa576116a9611652565b5b828203905092915050565b7f6f72646572476f6f647300000000000000000000000000000000000000000000600082015250565b60006116eb600a83611508565b91506116f6826116b5565b600a82019050919050565b600061170c826116de565b9150819050919050565b7f6f72646572537570706c69657300000000000000000000000000000000000000600082015250565b600061174c600d83611508565b915061175782611716565b600d82019050919050565b600061176d8261173f565b9150819050919050565b7f7265706c656e697368537570706c696573000000000000000000000000000000600082015250565b60006117ad601183611508565b91506117b882611777565b601182019050919050565b60006117ce826117a0565b9150819050919050565b60006117e382611097565b91507fffffffffffffffffffffffffffffffffffffffffffffffffffffffffffffffff820361181557611814611652565b5b600182019050919050565b7f4e487b7100000000000000000000000000000000000000000000000000000000600052603260045260246000fd5b7f4d616e7566616374757265720000000000000000000000000000000000000000600082015250565b6000611885600c83611508565b91506118908261184f565b600c82019050919050565b60006118a682611878565b9150819050919050565b7f537570706c696572000000000000000000000000000000000000000000000000600082015250565b60006118e6600883611508565b91506118f1826118b0565b600882019050919050565b6000611907826118d9565b9150819050919050565b600061191c82611097565b915061192783611097565b9250827fffffffffffffffffffffffffffffffffffffffffffffffffffffffffffffffff0382111561195c5761195b611652565b5b828201905092915050565b600081519050919050565b60005b83811015611990578082015181840152602081019050611975565b8381111561199f576000848401525b50505050565b60006119b082611967565b6119ba8185611508565b93506119ca818560208601611972565b80840191505092915050565b60006119e282846119a5565b915081905092915050565b7f4e487b7100000000000000000000000000000000000000000000000000000000600052602260045260246000fd5b60006002820490506001821680611a3457607f821691505b602082108103611a4757611a466119ed565b5b5091905056fea26469706673582212205989187b1cc78a0eaa3a38f786f77e3158c314d6f994ec7bf0952ace123517c364736f6c634300080d0033",
  "immutableReferences": {},
  "source": "pragma solidity ^0.8.0;\n\nimport './workflowInterface.sol';\n\ncontract WorkflowOld is workflowInterface{\n\n    string[] roleList = [\"Bulk_Buyer\", \"Manufacturer\", \"Supplier\"];\n    string[] taskList = [\"orderGoods\", \"orderSupplies\", \"replenishSupplies\", \"deliverGoods\"];\n    mapping(string=>string[]) rolesToTask;\n\n    mapping(uint=>address) candidates;\n    uint candidatesCount;\n    address[] public new_candidates_test;\n    uint blockNumber = 0;\n\n    address public orderingContract;\n\n    struct workflowInstance{\n        uint workflowID;\n        mapping(string=>bool) tasks_state;\n        mapping(string=>address) participants;\n    }\n \n    mapping(uint => workflowInstance) instances;\n    uint public instancesCount;\n\n    mapping(address=>uint) pending_orders;\n    uint supplies = 100;\n\n    // modifier checkRole(string memory role, uint instanceID){\n    //     require(msg.sender == instances[instanceID].participants[role]);\n    //     _;\n    // }\n\n\n    constructor() public {\n        rolesToTask[\"orderGoods\"] = [\"Bulk_Buyer\",\"Manufacturer\"];\n        rolesToTask[\"orderSupplies\"] = [\"Manufacturer\",\"Supplier\"];\n        rolesToTask[\"replenishSupplies\"] = [\"Supplier\",\"Bulk_Buyer\"];\n        rolesToTask[\"deliverGoods\"] = [\"Manufacturer\",\"Bulk_Buyer\"];\n    }\n\n    function newInstance(address[] calldata participant) override external {\n\n        instancesCount++;\n        instances[instancesCount].workflowID = instancesCount;\n        instances[instancesCount].participants[\"Bulk_Buyer\"] = participant[0];\n        instances[instancesCount].participants[\"Manufacturer\"] = participant[1];\n        instances[instancesCount].participants[\"Supplier\"] = participant[2];\n\n        instances[instancesCount].tasks_state[\"orderGoods\"] = true;\n        instances[instancesCount].tasks_state[\"orderSupplies\"] = false;\n        instances[instancesCount].tasks_state[\"replenishSupplies\"] = false;\n        instances[instancesCount].tasks_state[\"deliverGoods\"] = false;\n    }\n\n\n    function orderGoods(uint instanceID) override external \n     {\n        require(instances[instanceID].tasks_state[\"orderGoods\"] == true , \"Wrong execution order\");\n       \n        if(supplies <= 0){\n            // instances[instanceID].tasks_state[\"orderGoods\"] = false;\n            instances[instanceID].tasks_state[\"orderSupplies\"] = true;\n        }\n        else{\n            supplies -=1;\n            address buyer = instances[instanceID].participants[\"Bulk_Buyer\"];\n            pending_orders[buyer] +=1;\n            // instances[instanceID].tasks_state[\"orderGoods\"] = false;\n            instances[instanceID].tasks_state[\"deliverGoods\"] = true;\n        }\n    }\n\n    function orderSupplies(uint instanceID) override external \n     {\n        require(instances[instanceID].tasks_state[\"orderSupplies\"] == true, \"Wrong execution order\");\n        instances[instanceID].tasks_state[\"orderSupplies\"] = false;\n        instances[instanceID].tasks_state[\"replenishSupplies\"] = true;\n    }\n\n    function replenishSupplies(uint instanceID) override external \n     {\n        require(instances[instanceID].tasks_state[\"replenishSupplies\"] == true, \"Wrong execution order\");\n        supplies +=1;\n        instances[instanceID].tasks_state[\"replenishSupplies\"] = false;\n        instances[instanceID].tasks_state[\"deliverGoods\"] = true;\n    }\n\n    function deliverGoods(uint instanceID) override external \n     {\n        require(instances[instanceID].tasks_state[\"deliverGoods\"] == true, \"Wrong execution order\");\n        pending_orders[instances[instanceID].participants[\"Bulk_Buyer\"]] -=1;\n        instances[instanceID].tasks_state[\"deliverGoods\"] = false;\n        instances[instanceID].tasks_state[\"orderGoods\"] = true;\n    }\n\n    function getSupplies() override external  view returns(uint){\n        return supplies;\n    }\n\n    function getInstances() override external view returns(uint){\n        return instancesCount;\n    }\n\n    function getPendingOrders(address buyer) override external  view returns(uint){\n        return pending_orders[buyer];\n    }\n\n    function getParticipantsByTask(uint instance, string memory task_name) override external view returns(address[] memory){\n        require(instances[instance].tasks_state[task_name] == true);\n        address[] memory participants = new address[](2);\n        string[] memory roles = rolesToTask[task_name];\n        participants[0] = instances[instance].participants[roles[0]];\n        participants[1] = instances[instance].participants[roles[1]];\n        return participants;\n    }\n\n    function setOrderingContract(address orderingContractAddress) external{\n        orderingContract = orderingContractAddress;\n    }\n\n    function setSupplies(uint newSupplies) external{\n        supplies = newSupplies;\n    }\n\n    function resetPendingOrders(address buyer) external{\n        pending_orders[buyer] = 0;\n    }\n}\n",
  "sourcePath": "/Users/hassanatwi/PAC/truffle/contracts/WorkflowOld.sol",
  "compiler": {
    "name": "solc",
    "version": "0.8.13+commit.abaa5c0e.Emscripten.clang"
  },
  "schemaVersion": "3.4.16",
  "updatedAt": "2023-12-04T21:41:21.935Z",
  "networkType": "ethereum",
  "devdoc": {
    "kind": "dev",
    "methods": {},
    "version": 1
  },
  "userdoc": {
    "kind": "user",
    "methods": {},
    "version": 1
  }
}